:100000000C9434000C9410060C9420060C945100AF
:100010000C9451000C9451000C941D040C9451004C
:100020000C9451000C9451000C9451000C9451000C
:100030000C9451000C9451000C9451000C945100FC
:100040000C9451000C9451000C94E6050C94510052
:100050000C9451000C9451000C9451000C945100DC
:100060000C9451000C94510011241FBECFEFD8E026
:10007000DEBFCDBF12E0A0E0B1E0E6E3F0E202C0F7
:1000800005900D92AA38B107D9F723E0AAE8B2E0AB
:1000900001C01D92AE32B207E1F70E94690B0C94C9
:1000A00019100C940000F89410928F0210928E0296
:1000B0007894E1ECF0E088E1808386E08093C200F0
:1000C0008CE08093C4001092C5008081806880839A
:1000D00008959091C00095FFFCCF8093C6000895CD
:1000E000CF93DF93EC018991882319F00E94690076
:1000F000FACFDF91CF9108955C9A08955C980895A6
:100100005E980895549A0E947E00569A0C9480003E
:10011000299A8091220390912303019690932303BF
:1001200080932203109225031092240380912603CA
:10013000817F81608093260308952998809126030A
:100140008E7F8093260308959091BC029F3F91F08B
:1001500084E1989FF0011124E354FD4F838920919D
:10016000BA02238B9093BA028093BC028F3F11F4A2
:100170008093BB020895F8948091BC028F3F51F0A8
:1001800094E1899FF0011124E354FD4F928991116C
:1001900001C08FEF789408951F93CF93DF93C82FFA
:1001A000D62F843670F064E60E944E0D182F80E33F
:1001B000810F0E94690084E6189FC019112481E014
:1001C00006C0633018F080E30E94690080E0CA3006
:1001D00070F08C2F6AE00E944E0DD82F80E38D0FB7
:1001E0000E9469008AE0D89FC019112407C0D2304C
:1001F00010F4882319F080E30E94690080E38C0FDB
:10020000DF91CF911F910C9469008091280386366D
:1002100018F48CEC90E00DC080912803811104C08B
:1002200080910001809328038091280390E0880F3B
:10023000991F0197F1F70895CF93DF93EC018DE0BB
:100240000E9469008AE00E946900C932D105F0F07D
:100250009E0128523109A091AE02B091AF020E94D6
:100260008D0D9B01AC018AE05595479537952795F3
:100270008A95D1F7ADE0B0E00E949C0D20E931E015
:1002800040E050E00E946E0DC90102C080E090E0A5
:10029000DF91CF910895F999FECF8FEF93E092BD52
:1002A00081BDF89A80B5809321031092BA0281E053
:1002B0008093D00282E08093E40283E08093F8028E
:1002C00084E080930C038FEF809320038093BC0223
:1002D0008093BB021092B9021092B802809169001B
:1002E000837F886080936900E99902C0E19AE99A66
:1002F0000895CF92DF92EF92FF920F931F93CF93C7
:10030000DF93EC0115E000E080E1E82E87E2F82EB3
:100310009AE0C92ED12CCE15DF0590F0CE01B701A1
:100320000E945A0D062F80E3860F0E9469000E9DE1
:10033000C0010F9D900D1124C81BD90B012F05C0C2
:10034000011718F080E30E946900C701B6010E94FE
:100350005A0D7B0111501130F1F68C2F805DDF9129
:10036000CF911F910F91FF90EF90DF90CF900C9461
:1003700069001F93CF93DF93EC01162F97FF07C0FF
:100380008DE20E946900D195C195D10903C080E238
:100390000E946900111106C0CE01DF91CF911F911B
:1003A0000C947901113029F0123031F068EE73E0CD
:1003B00005C06AE070E002C064E670E0CE010E9411
:1003C0005A0DC82FCB010E9479018EE20E9469006C
:1003D000612F8C2FDF91CF911F910C94CC009091C5
:1003E0002803980F90932803F894289A5F98ECECD0
:1003F000F0E03197F1F798E02CEC30E080FD02C09E
:100400005F9801C05F9AF9013197F1F7915011F0AF
:100410008695F4CF5F9AE19A789428980895CF92C0
:10042000DF92FF920F931F93CF93DF93182FC62F66
:10043000F42E6901DFEFD40FD031B8F58AEA0E94BB
:10044000EF010E940501CF7080E1189FC00D1124BB
:100450008C2F0E94EF010E9405018C2F80950E9435
:10046000EF010E9405018D2F0E94EF010E940501FE
:100470008601FA94EFEFFE1661F06801F8018191B0
:100480008F010E94EF01F6018081D8270E940501AB
:10049000F0CF8D2F0E94EF01DF91CF911F910F912F
:1004A000FF90DF90CF900C940501DF91CF911F91C9
:1004B0000F91FF90DF90CF9008955398579A5F9ACD
:1004C000209A28980895CF93C82F90E024E095951E
:1004D00087952A95E1F78A3014F0895C01C0805D28
:1004E0000E9469008C2F8F708A3014F0895C01C0E3
:1004F000805DCF910C946900CF9394E1899F900126
:100500001124F901E354FD4F84E08283C091260356
:10051000C38321543D4F42E0809121030E940F028A
:1005200085E191E00E9470008C2F0E9463028DE0B3
:100530000E9469008AE00E94690080ED97E00197BF
:10054000F1F7CF91089580912A0390912B0308959C
:1005500080E090E00895FC01F695E795F695E79523
:100560009C01232F3327269526952695E20FF31F0E
:10057000E80FF91FEE0FFF1F309711F03197F1F7D9
:1005800020ED37E0019720F0F9013197F1F7FACF2C
:10059000089594E99093BC00882389F08CE32AE0C5
:1005A00030E09091BC0094FD0AC0815021F40E947B
:1005B0006E0A81E00895F9013197F1F7F2CF80E0FA
:1005C0000895CF93C82F0E94740ACC0FC093BB002C
:1005D00084E88093BC008CE32AE030E09091BC007A
:1005E00097FD09C0815019F40E946E0A14C0F901E8
:1005F0003197F1F7F3CF8091B900C82FC87FC83188
:1006000051F0C03441F0C03241F0C83431F00E94A2
:100610006E0A8C2F03C081E001C080E0CF91089565
:10062000EF92FF920F931F93CF93DF93182FEB015D
:100630007A01209711F4C1E0D0E00E94740A811180
:1006400008C0812F880F8F5F0E94970A811106C012
:1006500009C00E94740A8823A1F324C0813011F5D7
:1006600085E020C0219787012097A9F480E00E94AF
:10067000EF0A813011F486E015C0883599F4809135
:10068000BB00F80181938F01219770F784E9809373
:10069000BC0080E007C081E00E94EF0A813059F37E
:1006A000803569F3DF91CF911F910F91FF90EF900B
:1006B0000895CF92DF92EF92FF920F931F93CF9303
:1006C000DF93182FD62EC72EEA017901209711F457
:1006D000C1E0D0E00E94740A811107C0110F812F80
:1006E0000E94970A811106C00AC00E94740A8823DA
:1006F000A9F347C0813009F044C082E042C0002322
:1007000049F08C2D0E94C40A882321F08130C9F55C
:1007100083E037C08D2D0E94C40A8111F7CF0E945B
:10072000740A882321F0813061F584E02AC081E0D9
:10073000810F0E94970A882321F0813011F585E00E
:1007400020C0219787012097A9F480E00E94EF0A3A
:10075000813011F486E015C0883599F48091BB0092
:10076000F80181938F01219770F784E98093BC0091
:1007700080E007C081E00E94EF0A813059F38035A4
:1007800069F3DF91CF911F910F91FF90EF90DF9070
:10079000CF900895CF92DF92EF92FF920F931F9325
:1007A000CF93DF93C82EEB017A01D22E132F0E9434
:1007B000740A811107C08C2D880F0E94970A81113D
:1007C00006C009C00E94740A8823A9F32DC0813095
:1007D00059F582E029C0002349F08D2F0E94C40AF8
:1007E000882321F0813001F583E01EC08C2F0E9408
:1007F000C40A882321F08130B9F484E015C0CD2DDE
:10080000D12F8E010E0D1F1DC017D10749F0899100
:100810000E94C40A8823C1F3813031F485E004C00A
:1008200084E98093BC0080E0DF91CF911F910F910C
:10083000FF90EF90DF90CF9008951F920F920FB628
:100840000F9211248F938091290381110BC00FB651
:10085000F894A89580916000886180936000109260
:1008600060000FBE8F910F900FBE0F901F901895D4
:1008700091E09093290383FD02C098E001C098E2C3
:100880008770982B88E10FB6F894A8958093600044
:100890000FBE90936000FFCFCF93C0917A0020915C
:1008A0007A002F7720937A002091640021602093B2
:1008B000640020916400246020936400209164000F
:1008C0002260209364000E941F0B80E00E94100BA6
:1008D000C7FF0AC0809164008E7F8093640080917E
:1008E0007A00806880937A00809164008B7F809387
:1008F0006400809164008D7F80936400CF9108959F
:1009000090917C009827907C80937C00992321F023
:1009100084E190E00E94AB0285EC80937A008091A4
:100920007A0086FDFCCF809178002091790090E0DC
:10093000922B08958EE40E948004BC0180E090E038
:100940000E946A0E9B01AC0160E070E08CED97E4C0
:100950000E94C90D0E943B0ECB010895EF92FF92B9
:100960000F931F93CF93DF93CDB7DEB72C970FB6BE
:10097000F894DEBF0FBECDBF04E610E0F801808121
:100980008E7F80838AE7E82EF12CF70180818068D2
:1009900080830E949A040E949A040E949A040E94F2
:1009A0009A040E949A049A87898782E40E948004AC
:1009B00098878F8380E40E9480049A83898381E4EE
:1009C0000E9480049D838C8383E40E9480049C8722
:1009D0008B87F70180818F778083F8018081816028
:1009E00080832F813885E985FA85A2E3B5E00E94EE
:1009F0008D0D9B01AC019AE055954795379527954C
:100A00009A95D1F7DF010E949C0D24E630E040E08A
:100A100050E00E946E0D38872F8389819A810E9451
:100A20001C018B838C819D810E941C018E83F89414
:100A300089859A85E8EAF2E0918780878F81988599
:100A40009783868389819A81918380838B81828336
:100A50008C819D81948383838E8185838B859C8506
:100A600093878287789480E02C960FB6F894DEBF47
:100A70000FBECDBFDF91CF911F910F91FF90EF90EF
:100A8000089580E090E00895EF92FF920F931F93F6
:100A9000CF93DF93E0907C0010917A00107851F4AE
:100AA000909164009E7F9093640090917A0090688A
:100AB00090937A008770806480937C0009E0D0E096
:100AC0000150C9F08BE0F82E0E94510BC82F0E94F4
:100AD000510B880F982F9C2B913039F0923039F0C0
:100AE000FA94F110F1CF927003C090E001C091E050
:100AF000DD0FD90FE5CFE0927C0011110AC0809183
:100B00007A008F7780937A0080916400816080936F
:100B100064008D2FDF91CF911F910F91FF90EF9087
:100B20000895CF92DF92EF92FF920F931F93CF938E
:100B3000DF93E0907C0010917A00107851F480915E
:100B400064008E7F8093640080917A008068809337
:100B50007A000AE0D0E09EE4D92E28ECC22E0150A3
:100B6000E9F08BE0F82ED0927C000E94510BC82F48
:100B7000C0927C000E94510B880F982F9C2B9130C3
:100B800039F0923039F0FA94F110EDCF927003C041
:100B900090E001C091E0DD0FD90FE1CFE0927C0041
:100BA00011110AC080917A008F7780937A0080912A
:100BB00064008160809364008D2FDF91CF911F913D
:100BC0000F91FF90EF90DF90CF9008951F920F92BA
:100BD0000FB60F9211248F939F93EF93FF93809101
:100BE000C6008A3011F08D3021F481E080938E02AE
:100BF0000EC090918F02943150F4E0918F0291E0F9
:100C00009E0F90938F02F0E0E057FD4F8083FF919D
:100C1000EF919F918F910F900FBE0F901F9018959D
:100C20001F920F920FB60F9211248F93E89881E0D4
:100C3000809327038F910F900FBE0F901F901895F0
:100C40001F920F920FB60F9211242F933F934F9341
:100C50005F936F937F938F939F93AF93BF93EF9324
:100C6000FF93F89482E391E00197F1F798E080E038
:100C70002CEC30E04B998068915029F0F9013197C4
:100C8000F1F78695F7CF2091B8023091B902223062
:100C90003105B1F038F42115310561F0213031050D
:100CA000C1F1BDC023303105E9F12430310509F42B
:100CB00083C0B5C08A3A09F0B2C081E090E019C0A3
:100CC0002091B5029091B5022F7092959F702917CF
:100CD000A9F09091B5029095891310C08091B5024A
:100CE0008F7090912103891711F081110DC083E05D
:100CF00090E09093B9028093B80291C09091B502B0
:100D00009A3A39F08A3AC9F21092B9021092B802AE
:100D100086C022E030E03093B9022093B80280937D
:100D2000B5027DC0803180F79091BA029F3FE9F013
:100D300024E1299FF0011124E354FD4F33893093BE
:100D4000BA02128A3FEF338B3091BC023F3F19F455
:100D50009093BC0208C0E091BB022E9FF0011124C9
:100D6000E354FD4F938B9093BB029093B402909108
:100D7000B4029F3F09F453C0E091B4022091B50240
:100D800094E19E9FF0011124E354FD4F2083E091F4
:100D9000B4029E9FF0011124E354FD4F91E0980F9F
:100DA00091838093B70284E090E09093B90280939E
:100DB000B8021092B60233C0E091B4022091B6029C
:100DC00094E19E9FF0011124E354FD4F31813213D1
:100DD00011C02091B70282130AC0E091B4029E9F15
:100DE000F0011124E354FD4F81E0828B8DCF0E94EE
:100DF000A4008ACFE091B4022091B60231E0320F14
:100E00003093B6029E9FF0011124E354FD4FE20F90
:100E1000F11D82839091B70289278093B702E19AEE
:100E20007894FF91EF91BF91AF919F918F917F91B6
:100E30006F915F914F913F912F910F900FBE0F9047
:100E40001F901895CF93DF9380312FEE920730F0EB
:100E500082E291E0DF91CF910C947000EC01C031FF
:100E60008EE0D80760F0CE0160E17EE00E945A0D6E
:100E7000862F62E00E94CC008AE30E946900CE01C6
:100E80006CE370E00E945A0D962FC82F62E0892F04
:100E90000E94CC008AE30E94690062E08C2FDF91FF
:100EA000CF910C94CC0087E291E00E94700060E04A
:100EB000809121030E94CC0080E391E00E947000A9
:100EC00080912203909123030E9479018DE00E947A
:100ED00069008AE00E946900E0918C02F0918D0225
:100EE000EE0FFF1FE95FFE4F808191810E9470002D
:100EF0008DE00E9469008AE00E9469008091B00242
:100F00009091B10262E00E94B9018FE20E946900F3
:100F10008091AE029091AF0263E00E94B90188E334
:100F200091E00E9470008DE00E9469008AE00E94BA
:100F300069008091AA0261E090E00E94B90180E21C
:100F40000E9469008091A8029091A9020E947901F3
:100F50008FE20E9469008091AD0261E090E00E9402
:100F6000B90180E20E9469008091AB029091AC02CD
:100F70000E9479018DE00E9469008AE00E94690068
:100F80008BE391E00E9470008091B2029091B302D5
:100F90000E94790180E20E9469008091B2029091E2
:100FA000B3028835924018F48FE391E002C085E4E3
:100FB00091E00E9470008DE00E9469008AE00C942C
:100FC00069000E945307199B09C089E491E00E94BF
:100FD0007000809124039091250308C08EE491E075
:100FE0000E9470008091A5029091A6020E942207A3
:100FF0008DE00E9469008AE00E9469008DE00E94F5
:1010000069008AE00C9469007F928F929F92AF9260
:10101000BF92CF92DF92EF92FF920F931F93CF93E5
:10102000DF930E941F0B84E00E94100B81E08093ED
:1010300029039FE088E10FB6F894A895809360009B
:101040000FBE909360000E94BB00F82E8FEFF81641
:1010500009F4DEC0CF2CD12C94E1F99E800111243B
:10106000F801E354FD4F4F01C081D0E094E0D595E5
:10107000C7959A95E1F77C2E86E591E00E94700075
:1010800060E08C2F0E94CC008AE30E94690001542A
:101090001D4F5801F401E180EE2051F0F5018191DE
:1010A0005F010E94630280E20E946900EA94F4CF2B
:1010B0008DE00E9469008AE00E946900772009F4AF
:1010C000A3C0F8018081823009F440C020F5882354
:1010D00009F47CC0813009F097C00E94AE04809171
:1010E000AA0294E19C9DF0019D9DF00D1124E35412
:1010F000FD4F83838091AD028483980143E06C2F80
:10110000809121030E940F0282E691E00E9470000C
:101110000E94530775C0843009F45DC058F18530D2
:1011200009F072C08DE991E00E9470008091AA02DE
:1011300061E090E00E94B9018FE20E946900809115
:10114000AD0261E090E00E94B90154C08091260395
:1011500087FD3CC081E08093A7028FE691E00E946A
:1011600070008DE00E9469008AE00E9469000E9480
:1011700088002CC00E949D008EE791E00E947000C4
:101180008DE00E9469008AE00E94690084E18C9DE4
:10119000F0018D9DF00D1124E354FD4F048110E00A
:1011A000102F00278381080F111D1093A6020093B2
:1011B000A5028FE491E00E947000C8010E947901AD
:1011C0008DE00E9469008AE00E9469006C2F8F2DDB
:1011D0000E947C0219C08EE891E00E94700084E1B8
:1011E0008C9DF0018D9DF00D1124E354FD4F838102
:1011F0000E9463028DE00E9469008AE00E946900FB
:1012000080ED97E00197F1F7F8940E94A40078949C
:1012100080912703F89410922703E89902C0E09A7E
:10122000E89A7894882341F00E94AE040E94E10776
:1012300080ED97E00197F1F7DF91CF911F910F912A
:10124000FF90EF90DF90CF90BF90AF909F908F90E6
:101250007F9008950E947E0083E090E00E94040841
:101260000E947C0083E090E00C9404080F931F938D
:10127000CF93DF93EB019093A6028093A502109287
:10128000A70280E293E00197F1F76530710511F450
:101290000E947E0010E001E08091A5029091A602DC
:1012A0009C01215031093093A6022093A502892B7D
:1012B00009F449C08091A702882319F01092A7026F
:1012C00042C0802F811B182F11F0209729F486E04F
:1012D00090E00E94040829C0C130D10529F485E0BE
:1012E00090E00E9404081BC0C230D10529F484E0BC
:1012F00090E00E94040811C0C330D10549F485E094
:1013000090E00E94040884E090E00E94040809C074
:10131000C430D10541F40E942A090E942A090E9482
:101320002A090E942A090E947E00199BB5CF80914C
:10133000240390912503019609F4AECF90932503E1
:1013400080932403A9CF84E690E00197F1F7DF9121
:10135000CF911F910F910895CF93DF931F92CDB737
:10136000DEB714BE0FB6F894A8958091600088612E
:1013700080936000109260000FBE80917A008F779A
:1013800080937A008091640081608093640080B7CC
:10139000806880BF80916400806280936400809147
:1013A000640088608093640080916400806480930E
:1013B00064000E9482000E945D020E944B010E9414
:1013C000530078941982809121030E9463028DE07A
:1013D0000E9469008AE00E9469008AEA0E94630212
:1013E00080E20E94690085E50E9463028DE00E9410
:1013F00069008AE00E94690080ED97E00197F1F7AB
:1014000081E0809329039FE088E10FB6F894A895C6
:10141000809360000FBE9093600094E1B92E20EDA0
:10142000C22E27E0D22E0E947C000E94800084E021
:1014300090E00E9404080E947E005E9A84E090E0A2
:101440000E9404080E94BB008F3F09F442C0E82EAE
:10145000F12CBE9C8001BF9C100D1124F801E354B7
:10146000FD4F01541D4F4801A180AA2051F0D40125
:101470008D914D010E94630280E20E946900AA944E
:10148000F4CF8DE00E9469008AE00E946900BE9C52
:10149000F001BF9CF00D1124E354FD4F608170E01A
:1014A00084E0759567958A95E1F76115710569F096
:1014B000D8018C91811109C0809126038383980102
:1014C00042E0809121030E940F02F8940E94A40040
:1014D0007894C6010197F1F7A895A5CFECEBF0E061
:1014E000108284E48083089584EA8093BC008CE3B6
:1014F0002AE030E09091BC0097FD0AC0815021F4B1
:101500000E946E0A81E00895F9013197F1F7F2CF58
:101510008091B900887F883041F0803131F0883384
:1015200029F40E946E0A88E3089580E00895CF931D
:101530008093BB0084E88093BC008CE32AE030E019
:101540009091BC0097FD0AC0815021F40E946E0A60
:1015500081E018C0F9013197F1F7F2CFC091B900DD
:10156000C87FC83171F0C03461F0C03211F0C834A6
:1015700021F481E00E94C90202C00E946E0A8C2FF1
:1015800001C080E0CF910895CF938093BB0084E8A1
:101590008093BC008CE32AE030E09091BC0097FD82
:1015A0000AC0815021F40E946E0A81E016C0F90140
:1015B0003197F1F7F2CF8091B900C82FC87FC832B8
:1015C00059F0C03329F481E00E94C90280E305C0CC
:1015D0000E946E0A8C2F01C080E0CF91089588236D
:1015E00011F084EC01C084E88093BC008CE32AE015
:1015F00030E09091BC0097FD0AC0815021F40E9418
:101600006E0A81E00895F9013197F1F7F2CF8091E8
:10161000B900887F883319F40E946E0A88E3089520
:1016200093B7917F892B83BFF89483B7816083BF81
:101630007894889583B78E7F83BF789408958A3095
:101640009105C1F01092290383FD02C028E001C07A
:1016500028E28770822B98E10FB6F894A8959093B2
:1016600060000FBE80936000809160008064809372
:10167000600008950FB6F894A89580916000886185
:1016800080936000109260000FBE0895EAE7F0E0DA
:10169000808180648083809178009091790081704E
:1016A0000895CF93DF93DAE00E94460BC82F0E9483
:1016B000460B880F8C2B813031F0823031F0D150C5
:1016C00099F7817003C080E001C081E0DF91CF9184
:1016D000089514BE0FB6F894A895809160008861B3
:1016E00080936000109260000FBE80917A008F7727
:1016F00080937A008091640081608093640080B759
:10170000806880BF809164008062809364008091D3
:10171000640088608093640080916400806480939A
:1017200064000E948200219A2998389839983A9842
:101730000E945D025298109226030E949D000E9412
:101740004B0110922703809169008C7F8260809307
:101750006900E89902C0E09AE89A0E9453007894E0
:101760007724739488E1682E9FE0592E00E21CE1F3
:10177000EE24E394F12C34E0C32ED12CC3E0D0E06E
:1017800046E0A42EB12C1092A4025E9A0E947C0026
:10179000709229030FB6F894A895609260000FBE6E
:1017A000509260008CEA91E00E9470008DE00E94EF
:1017B00069008AE00E94690010928D0210928C02EA
:1017C0000E949D0010938B0200938A0260E070E0FB
:1017D0008EE190E00E9436090E9480008091A40270
:1017E00081113EC00E947C000E94AE040E94E1076D
:1017F0008090AA02912C0E94AE040E94E10722E28E
:101800008216910490F48091AA02823270F4809141
:10181000AA0290E08815990530F58091AA02881AED
:1018200091084BE08416910428F15E9A0E949D0075
:101830008091260380688093260381ED91E00E94C9
:1018400070008DE00E9469008AE00E946900F092B9
:101850008D02E0928C0265E070E080EC98EABACFED
:101860000E949D0090CF8091AA0290E0881999096A
:101870000B97D8F6199B08C08091240390912503FB
:1018800081329C4108F0E9C08091AA02853008F0BD
:1018900086C0199B59C083EE91E00E9470008DE0D4
:1018A0000E9469008AE00E94690061E070E08AE0BD
:1018B00090E00E9436090E94AE040E94E1078091E8
:1018C000AA02853008F0C2C0809126038860809308
:1018D00026030E949D0020912403309125038091CE
:1018E0008A0290918B022935324038F4885F984FF4
:1018F000813428E3920758F406C0883243E2940703
:1019000030F08850974090938B0280938A028DEE3E
:1019100091E00E94700080918A0290918B020E9457
:1019200079018DE00E9469008AE00E94690082E0EE
:1019300090E090938D0280938C0260E070E0809143
:101940008A0290918B0263C08DEF91E00E9470003B
:101950008DE00E9469008AE00E9469008091260360
:1019600083FF91C08091B2029091B302883592407A
:1019700008F089C08FE391E00E947000B0928D0260
:10198000A0928C0260E070E080E19EE00E94360947
:101990008DE00E9469008AE00E94690057C0199B8F
:1019A00039C08091AA028E3108F450C088E092E0DC
:1019B0000E9470008DE00E9469008AE00E94690028
:1019C00062E070E08AE090E00E9436090E94AE0476
:1019D0000E94E1078091AA028E31C0F18091260316
:1019E0008460809326030E949D0083E192E00E9420
:1019F00070008DE00E9469008AE00E946900D09228
:101A00008D02C0928C0264E070E080E19EE00E9452
:101A100036091CC081E292E00E9470008DE00E94B5
:101A200069008AE00E9469000E9488008FE292E0CB
:101A30000E9470008DE00E9469008AE00E946900A7
:101A400085E090E090938D0280938C0260E070E0DE
:101A500081E090E00E943609C1CE8DE00E946900CD
:101A60008AE00E94690085E392E00E9470008DE0A8
:101A70000E9469008AE00E946900809126038260CA
:101A80008093260301CF0E9488008FE292E00E949B
:101A90007000D0938D02C0938C027ACF991B79E0AD
:101AA00004C0991F961708F0961B881F7A95C9F7EE
:101AB00080950895AA1BBB1B51E107C0AA1FBB1F3D
:101AC000A617B70710F0A61BB70B881F991F5A95CA
:101AD000A9F780959095BC01CD010895052E97FB3F
:101AE0001EF400940E94850D57FD07D00E94A70D9B
:101AF00007FC03D04EF40C94850D5095409530951D
:101B000021953F4F4F4F5F4F089590958095709569
:101B100061957F4F8F4F9F4F0895A29FB001B39F54
:101B2000C001A39F700D811D1124911DB29F700DE6
:101B3000811D1124911D08950E948D0DA59F900D6A
:101B4000B49F900DA49F800D911D11240895A1E2D2
:101B50001A2EAA1BBB1BFD010DC0AA1FBB1FEE1F27
:101B6000FF1FA217B307E407F50720F0A21BB30B72
:101B7000E40BF50B661F771F881F991F1A9469F7EE
:101B800060957095809590959B01AC01BD01CF014A
:101B900008950E94DD0D0C94BE0E0E94B70E58F001
:101BA0000E94B00E40F029F45F3F29F00C94A70E7C
:101BB00051110C94F20E0C94AD0E0E94CF0E68F3EE
:101BC0009923B1F3552391F3951B550BBB27AA27F6
:101BD00062177307840738F09F5F5F4F220F331F30
:101BE000441FAA1FA9F335D00E2E3AF0E0E832D0F8
:101BF00091505040E695001CCAF72BD0FE2F29D0FB
:101C0000660F771F881FBB1F261737074807AB07CC
:101C1000B0E809F0BB0B802DBF01FF2793585F4F41
:101C20003AF09E3F510578F00C94A70E0C94F20EFA
:101C30005F3FE4F3983ED4F3869577956795B79523
:101C4000F7959F5FC9F7880F911D9695879597F92E
:101C50000895E1E0660F771F881FBB1F62177307A7
:101C60008407BA0720F0621B730B840BBA0BEE1FBC
:101C700088F7E09508950E94D70E88F09F5798F056
:101C8000B92F9927B751B0F0E1F0660F771F881F81
:101C9000991F1AF0BA95C9F714C0B13091F00E949B
:101CA000F10EB1E008950C94F10E672F782F88277C
:101CB000B85F39F0B93FCCF3869577956795B395C2
:101CC000D9F73EF490958095709561957F4F8F4F31
:101CD0009F4F0895E89409C097FB3EF49095809536
:101CE000709561957F4F8F4F9F4F9923A9F0F92FE2
:101CF00096E9BB279395F695879577956795B79560
:101D0000F111F8CFFAF4BB0F11F460FF1BC06F5F45
:101D10007F4F8F4F9F4F16C0882311F096E911C057
:101D2000772321F09EE8872F762F05C0662371F078
:101D300096E8862F70E060E02AF09A95660F771F8C
:101D4000881FDAF7880F9695879597F9089597F980
:101D50009F6780E870E060E008959FEF80EC089551
:101D600000240A941616170618060906089500247A
:101D70000A9412161306140605060895092E0394F4
:101D8000000C11F4882352F0BB0F40F4BF2B11F468
:101D900060FF04C06F5F7F4F8F4F9F4F089557FDC7
:101DA0009058440F551F59F05F3F71F04795880FC9
:101DB00097FB991F61F09F3F79F087950895121660
:101DC00013061406551FF2CF4695F1DF08C016160C
:101DD00017061806991FF1CF8695710561050894BD
:101DE0000895E894BB2766277727CB0197F90895D4
:101DF0000F931F93CF93DF938230910510F482E00D
:101E000090E0E0912C03F0912D0320E030E0A0E081
:101E1000B0E0309719F14081518102811381481758
:101E20005907C8F08417950769F4109731F0129696
:101E30000C93129713961C9327C000932C031093B6
:101E40002D0322C02115310519F04217530718F44C
:101E50009A01BD01EF01DF01F801DBCF211531054A
:101E6000F9F0281B390B2430310580F48A819B81DD
:101E70006115710521F0FB019383828304C0909367
:101E80002D0380932C03FE01329644C0FE01E20F25
:101E9000F31F8193919322503109398328833AC0EB
:101EA00020912A0330912B03232B41F4209103012D
:101EB0003091040130932B0320932A0320910101D8
:101EC000309102012115310541F42DB73EB7409103
:101ED000050150910601241B350BE0912A03F09176
:101EE0002B03E217F307A0F42E1B3F0B281739072B
:101EF00078F0AC014E5F5F4F2417350748F04E0F66
:101F00005F1F50932B0340932A038193919302C048
:101F1000E0E0F0E0CF01DF91CF911F910F910895A4
:101F2000CF93DF93009709F481C0FC0132971382AD
:101F30001282A0912C03B0912D03109781F420817F
:101F40003181820F931F20912A0330912B03281790
:101F5000390751F5F0932B03E0932A0367C0ED0195
:101F600020E030E0CE17DF0740F44A815B819E011C
:101F700041155105F1F0EA01F5CFD383C2834081C9
:101F80005181840F951FC817D90759F48881998109
:101F9000840F951F0296918380838A819B8193830E
:101FA00082832115310529F4F0932D03E0932C034E
:101FB0003DC0E901FB83EA8349915991C40FD51FC4
:101FC000EC17FD0761F480819181840F951F0296C3
:101FD000E90199838883828193819B838A83E0E0EE
:101FE000F0E012968D919C911397009719F0FD01E6
:101FF000DC01F7CF8D919C9111979D012E5F3F4F92
:10200000820F931F20912A0330912B032817390741
:1020100069F4309729F410922D0310922C0302C01A
:1020200013821282B0932B03A0932A03DF91CF91E6
:062030000895F894FFCFB3
:102036000100002E0320004302480259025F026E8F
:102046000279023F017265706C7920737461746560
:102056003A003E313768002070756D70206E3A0088
:102066002073747274733A00207600206C3A006E06
:10207600696768740064617900206F6E20002064CF
:10208600656C6179200072733438352066726F6D25
:1020960020007265706C792070726573733A002A3D
:1020A60072733438352070756D705F6F6E002A72EA
:1020B600733438352070756D705F6F6666007265B3
:1020C60063696576652073746174653A0072656349
:1020D600696576652070726573733A007661725F22
:1020E60073696E676C655F776974686F75745F6234
:1020F60061636B5F76616C76655F70726573733171
:102106000020706F66662028707265737320657292
:10211600722900206C6F7720286F6E29002A2070A4
:102126006F66662028656D707479292000206C6FB3
:102136007720286F66662900206869676820286FFF
:102146006E29002A20706F666620286869676829EC
:1021560000206E6F726D616C20286F666629002AFA
:1021660020706F6E0021206D6178206F6E2074697B
:102176006D6500696E6974007072657373207365AE
:102186006E73206572726F7200656D70747900737C
:10219600746172742066726F6D206C6F7700707256
:1021A600657373206869676800737461727420666A
:0A21B600726F6D206E6F726D0000F5
:00000001FF
