:107E000001C0CDC084B78EBB98E1909360009EE026
:107E10009093600014BE112481FD12C09091F00473
:107E2000953519F4857F82608EBB88E18093600070
:107E30008FE080936000EE27E093F004FF27099421
:107E400085E58093F00412BC11BCF89A80B58F3F91
:107E500009F489E18093C40082E08093C00088E146
:107E60008093C10086E08093C20081E081BDF89AD2
:107E700080B58F3F11F080936600C0E0D0E0A6D0BF
:107E8000182F813421F4A2D0A9D083E018C0823405
:107E900011F484E103C0853419F485E0A5D07CC0D9
:107EA000853541F493D0C82F91D0D0E0D82BCC0F9A
:107EB000DD1F71C0863529F484E096D080E07FD044
:107EC0006BC0843609F040C081D080D0F82E7ED0BF
:107ED000E82E00E011E07AD0F80181938F01FE12C4
:107EE000FACFF6E4EF1220C079D040E050E063E032
:107EF000CE0155D07E0100E011E0F8014081818182
:107F000050E0582B61E0C7014AD0F2E0EF0EF11CBF
:107F10000E5F1F4F003881E0180779F740E050E00E
:107F200065E0CE013CD038C059D0E0E0F1E0EF157B
:107F300008F032C0F999FECFD2BDC1BD819180BD9C
:107F4000FA9AF99A2196F3CF8437E1F43FD03ED0E4
:107F5000082F3CD0F82E42D0E6E4FE1204C0FE0109
:107F60001591EF010AC0F5E4FF1207C0F999FECFA1
:107F7000D2BDC1BDF89A10B52196812F20D00150F5
:107F800059F70AC0853739F429D08EE118D085E930
:107F900016D08FE094CF22D080E111D070CFFC01B9
:107FA0000A0167BFE895112407B600FCFDCF667093
:107FB00029F0452B19F481E187BFE8950895909148
:107FC000C00095FFFCCF8093C60008958091C0004B
:107FD00087FFFCCFA8958091C6000895F7DF803217
:107FE00009F0FFCF84E1EBCFCF93C82FEFDFC15073
:067FF000E9F7CF91F3CF89
:0400000300007E007B
:00000001FF
