:100000000C9434000C94D1040C94E1040C94510031
:100010000C9451000C9451000C9444030C94510026
:100020000C9451000C9451000C9451000C9451000C
:100030000C9451000C9451000C9451000C945100FC
:100040000C9451000C9451000C94A7040C94510092
:100050000C9451000C9451000C9451000C945100DC
:100060000C9451000C94510011241FBECFEFD8E026
:10007000DEBFCDBF11E0A0E0B1E0EEE8F6E102C0E6
:1000800005900D92AC3AB107D9F722E0ACEAB1E0A5
:1000900001C01D92A834B207E1F70E94D3080C9466
:1000A000450B0C9400009091C00095FFFCCF80930D
:1000B000C6000895CF93DF93EC018991882319F04E
:1000C0000E945300FACFDF91CF9108959091DA0109
:1000D0009F3F91F084E1989FF0011124E552FE4F7B
:1000E00083892091D801238B9093D8018093DA01E2
:1000F0008F3F11F48093D90108951F93CF93DF931D
:10010000C82FD62F843670F064E60E94D508182FC9
:1001100080E3810F0E94530084E6189FC0191124C8
:1001200081E006C0633018F080E30E94530080E055
:10013000CA3070F08C2F6AE00E94D508D82F80E377
:100140008D0F0E9453008AE0D89FC019112407C068
:10015000D23010F4882319F080E30E94530080E32A
:100160008C0FDF91CF911F910C945300809142022C
:10017000863618F48CEC90E00DC08091420281111B
:1001800004C080910001809342028091420290E07D
:10019000880F991F0197F1F70895CF92DF92EF92A0
:1001A000FF920F931F93CF93DF93EC0115E000E0D4
:1001B00080E1E82E87E2F82E9AE0C92ED12CCE15E8
:1001C000DF0590F0CE01B7010E94E108062F80E321
:1001D000860F0E9453000E9DC0010F9D900D1124AB
:1001E000C81BD90B012F05C0011718F080E30E942E
:1001F0005300C701B6010E94E1087B011150113084
:10020000F1F68C2F805DDF91CF911F910F91FF90C0
:10021000EF90DF90CF900C9453001F93CF93DF9318
:10022000EC01162F97FF07C08DE20E945300D19575
:10023000C195D10903C080E20E945300111106C08C
:10024000CE01DF91CF911F910C94CD00113029F098
:10025000123031F068EE73E005C06AE070E002C071
:1002600064E670E0CE010E94E108C82FCB010E9435
:10027000CD008EE20E945300612F8C2FDF91CF9131
:100280001F910C947D0090914202980F909342022E
:10029000F894289A5F98ECECF0E03197F1F798E049
:1002A0002CEC30E080FD02C05F9801C05F9AF9013C
:1002B0003197F1F7915011F08695F4CF5F9AE19A5A
:1002C000789428980895CF92DF92FF920F931F930E
:1002D000CF93DF93182FC62FF42E6901DFEFD40FD1
:1002E000D031B8F58AEA0E9443010E94B600CF706F
:1002F00080E1189FC00D11248C2F0E9443010E94A1
:10030000B6008C2F80950E9443010E94B6008D2F6D
:100310000E9443010E94B6008601FA94EFEFFE1698
:1003200061F06801F80181918F010E944301F6019B
:100330008081D8270E94B600F0CF8D2F0E94430104
:10034000DF91CF911F910F91FF90DF90CF900C9490
:10035000B600DF91CF911F910F91FF90DF90CF906A
:100360000895CF93C82F90E024E0959587952A951E
:10037000E1F78A3014F0895C01C0805D0E9453006F
:100380008C2F8F708A3014F0895C01C0805DCF9112
:100390000C9453008091440290914502089580E0AE
:1003A00090E00895FC01F695E795F695E7959C0198
:1003B000232F3327269526952695E20FF31FE80F66
:1003C000F91FEE0FFF1F309711F03197F1F720ED75
:1003D00037E0019720F0F9013197F1F7FACF08954E
:1003E00094E99093BC00882389F08CE32AE030E004
:1003F0009091BC0094FD0AC0815021F40E940E0827
:1004000081E00895F9013197F1F7F2CF80E0089586
:10041000CF93C82F0E941408CC0FC093BB0084E870
:100420008093BC008CE32AE030E09091BC0097FD03
:1004300009C0815019F40E940E0814C0F9013197C7
:10044000F1F7F3CF8091B900C82FC87FC83151F0C0
:10045000C03441F0C03241F0C83431F00E940E087F
:100460008C2F03C081E001C080E0CF910895EF920E
:10047000FF920F931F93CF93DF93182FEB017A0115
:10048000209711F4C1E0D0E00E941408811108C047
:10049000812F880F8F5F0E943708811106C009C025
:1004A0000E9414088823A1F324C0813011F585E04F
:1004B00020C0219787012097A9F480E00E948F082F
:1004C000813011F486E015C0883599F48091BB0025
:1004D000F80181938F01219770F784E98093BC0024
:1004E00080E007C081E00E948F08813059F3803599
:1004F00069F3DF91CF911F910F91FF90EF900895D5
:10050000CF92DF92EF92FF920F931F93CF93DF93DF
:10051000182FD62EC72EEA017901209711F4C1E0D9
:10052000D0E00E941408811107C0110F812F0E9492
:100530003708811106C00AC00E9414088823A9F355
:1005400047C0813009F044C082E042C0002349F036
:100550008C2D0E946408882321F08130C9F583E046
:1005600037C08D2D0E9464088111F7CF0E941408B6
:10057000882321F0813061F584E02AC081E0810F79
:100580000E943708882321F0813011F585E020C0D2
:10059000219787012097A9F480E00E948F0881307D
:1005A00011F486E015C0883599F48091BB00F801FC
:1005B00081938F01219770F784E98093BC0080E0DC
:1005C00007C081E00E948F08813059F3803569F3BC
:1005D000DF91CF911F910F91FF90EF90DF90CF901F
:1005E0000895CF92DF92EF92FF920F931F93CF93D4
:1005F000DF93C82EEB017A01D22E132F0E9414082C
:10060000811107C08C2D880F0E943708811106C008
:1006100009C00E9414088823A9F32DC0813059F520
:1006200082E029C0002349F08D2F0E9464088823AE
:1006300021F0813001F583E01EC08C2F0E946408F8
:10064000882321F08130B9F484E015C0CD2DD12F5D
:100650008E010E0D1F1DC017D10749F089910E9410
:1006600064088823C1F3813031F485E004C084E953
:100670008093BC0080E0DF91CF911F910F91FF909C
:10068000EF90DF90CF9008951F920F920FB60F92C8
:1006900011248F938091430281110BC00FB6F894FF
:1006A000A89580916000886180936000109260003E
:1006B0000FBE8F910F900FBE0F901F90189591E075
:1006C0009093430283FD02C098E001C098E28770D6
:1006D000982B88E10FB6F894A895809360000FBE20
:1006E00090936000FFCF30917A00307820917A00AB
:1006F0002F7720937A00209164002160209364007A
:1007000020916400246020936400209164002260A2
:10071000209364008A309105C1F01092430283FD5A
:1007200002C028E001C028E28770822B98E10FB652
:10073000F894A895909360000FBE8093600080911C
:1007400060008064809360000BC00FB6F894A89599
:1007500080916000886180936000109260000FBEFD
:1007600083B7817F83BFF89483B7816083BF789418
:10077000889583B78E7F83BF7894332351F080911F
:1007800064008E7F8093640080917A0080688093FB
:100790007A00809164008B7F809364008091640074
:1007A0008D7F80936400089590917C009827907CC1
:1007B00080937C00992321F084E190E00E94D20193
:1007C00085EC80937A0080917A0086FDFCCF809141
:1007D00078002091790090E0922B08958EE40E9499
:1007E000D403BC0180E090E00E9496099B01AC011B
:1007F00060E070E08CED97E40E94F5080E946709C4
:10080000CB01089580E090E00895EF92FF920F935E
:100810001F93CF93DF93E0907C0010917A001078C3
:1008200051F4909164009E7F9093640090917A00BF
:10083000906890937A008770806480937C0009E0D0
:10084000D0E00150C9F08BE0F82E0E94BB08C82F01
:100850000E94BB08880F982F9C2B913039F0923062
:1008600039F0FA94F110F1CF927003C090E001C01A
:1008700091E0DD0FD90FE5CFE0927C0011110AC0A5
:1008800080917A008F7780937A00809164008160F4
:10089000809364008D2FDF91CF911F910F91FF9076
:1008A000EF900895CF92DF92EF92FF920F931F93F4
:1008B000CF93DF93E0907C0010917A00107851F490
:1008C000809164008E7F8093640080917A008068BC
:1008D00080937A000AE0D0E09EE4D92E28ECC22E64
:1008E0000150E9F08BE0F82ED0927C000E94BB080A
:1008F000C82FC0927C000E94BB08880F982F9C2BA9
:10090000913039F0923039F0FA94F110EDCF9270C5
:1009100003C090E001C091E0DD0FD90FE1CFE0927C
:100920007C0011110AC080917A008F7780937A0041
:10093000809164008160809364008D2FDF91CF915E
:100940001F910F91FF90EF90DF90CF9008951F922D
:100950000F920FB60F9211248F939F93EF93FF93F3
:100960008091C6008A3011F08D3021F481E08093AF
:10097000B0010EC09091B101943150F4E091B101F9
:1009800091E09E0F9093B101F0E0EE54FE4F808312
:10099000FF91EF919F918F910F900FBE0F901F903D
:1009A00018951F920F920FB60F9211248F93E8980B
:1009B00081E0809341028F910F900FBE0F901F90A6
:1009C00018951F920F920FB60F9211242F933F93F9
:1009D0004F935F936F937F938F939F93AF93BF9347
:1009E000EF93FF93F89482E391E00197F1F798E099
:1009F00080E02CEC30E04B998068915029F0F901AF
:100A00003197F1F78695F7CF2091D6013091D70134
:100A100022303105B1F038F42115310561F0213073
:100A20003105C1F1BDC023303105E9F12430310574
:100A300009F483C0B5C08A3A09F0B2C081E090E001
:100A400019C02091D3019091D3012F7092959F707E
:100A50002917A9F09091D3019095891310C0809126
:100A6000D3018F7090913F02891711F081110DC051
:100A700083E090E09093D7018093D60191C090914C
:100A8000D3019A3A39F08A3AC9F21092D7011092FA
:100A9000D60186C022E030E03093D7012093D60102
:100AA0008093D3017DC0803180F79091D8019F3F22
:100AB000E9F024E1299FF0011124E552FE4F33892A
:100AC0003093D801128A3FEF338B3091DA013F3FE8
:100AD00019F49093DA0108C0E091D9012E9FF0013A
:100AE0001124E552FE4F938B9093D9019093D2013C
:100AF0009091D2019F3F09F453C0E091D20120911F
:100B0000D30194E19E9FF0011124E552FE4F208312
:100B1000E091D2019E9FF0011124E552FE4F91E039
:100B2000980F91838093D50184E090E09093D70152
:100B30008093D6011092D40133C0E091D20120916C
:100B4000D40194E19E9FF0011124E552FE4F3181C2
:100B5000321311C02091D50182130AC0E091D20155
:100B60009E9FF0011124E552FE4F81E0828B8DCFD4
:100B70000E9466008ACFE091D2012091D40131E039
:100B8000320F3093D4019E9FF0011124E552FE4FA5
:100B9000E20FF11D82839091D50189278093D501C1
:100BA000E19A7894FF91EF91BF91AF919F918F91CE
:100BB0007F916F915F914F913F912F910F900FBE59
:100BC0000F901F901895CF93DF9380312FEE9207EF
:100BD00030F085E191E0DF91CF910C945A008031A3
:100BE0002EE0920780F060E17EE00E94E108262F6F
:100BF000D82FC92F62E0822F0E947D008AE30E94D5
:100C000053008D2F9C2F6CE370E00E94E108962F1B
:100C1000C82F62E0892F0E947D008AE30E94530062
:100C200062E08C2FDF91CF910C947D008AE191E0FE
:100C30000E945A0060E080913F020E947D0083E2A2
:100C400091E00E945A0080E090E00E94CD008DE08B
:100C50000E9453008AE00E945300E091AE01F0919F
:100C6000AF01EE0FFF1FE95FFE4F808191810E946F
:100C70005A008DE00E9453008AE00E945300809148
:100C8000CE019091CF0162E00E940D018FE20E949F
:100C900053008091CC019091CD0162E00E940D0142
:100CA0008BE291E00E945A008DE00E9453008AE09E
:100CB0000E9453008091C80161E090E00E940D0104
:100CC00080E20E9453008091C6019091C7010E946A
:100CD000CD008FE20E9453008091CB0161E090E053
:100CE0000E940D0180E20E9453008091C901909101
:100CF000CA010E94CD008DE00E9453008AE00E944C
:100D000053008EE291E00E945A008091D0019091B0
:100D1000D1010E94CD0080E20E9453008091D00159
:100D20009091D1018835924018F482E391E002C09D
:100D300088E391E00E945A008DE00E9453008AE00F
:100D40000C9453000E941606199B03C08CE391E09B
:100D500002C081E491E00E945A0080E090E00E948D
:100D6000E3058DE00E9453008AE00E9453008DE06D
:100D70000E9453008AE00C945300CF93DF931F929C
:100D8000CDB7DEB714BE0FB6F894A8958091600079
:100D9000886180936000109260000FBE80917A009D
:100DA0008F7780937A0080916400816080936400E3
:100DB00080B7806880BF8091640080628093640007
:100DC00080916400886080936400809164008064F6
:100DD00080936400549A5C98569A5E98219A299858
:100DE000389839983A985398579A5F9A209A289841
:100DF0005298109240022998809140028E7F8093F1
:100E00004002F999FECF8FEF93E092BD81BDF89A31
:100E100080B580933F021092D80181E08093EE016B
:100E200082E08093020283E08093160284E0809344
:100E30002A028FEF80933E028093DA018093D901DA
:100E40001092D7011092D60180916900837F88604B
:100E500080936900E99902C0E19AE99A10924102EF
:100E6000809169008C7F826080936900E89902C05C
:100E7000E09AE89AF8941092B1011092B001789437
:100E800018E11093C10086E08093C2008CE080934B
:100E9000C4001092C5008091C10080688093C10099
:100EA0007894198280913F020E94B1018DE00E94E6
:100EB00053008AE00E9453008AEA0E94B10180E256
:100EC0000E94530085E50E94B1018DE00E9453000D
:100ED0008AE00E94530080ED97E00197F1F781E0EE
:100EE000809343028FE00FB6F894A89510936000AA
:100EF0000FBE8093600094E1B92E20EDC22E27E052
:100F0000D22E5C9A299A88EE93E00E94D2015C98D6
:100F1000299888EE93E00E94D2018091B001882345
:100F2000C9F089E491E00E945A008DE00E945300CC
:100F30008AE00E9453004091B10122EB31E060E071
:100F400080913F020E946301F8941092B1011092C7
:100F5000B0017894F8940091DA010F3F49F0B09E07
:100F6000F0011124E552FE4F8289811101C00FEF7B
:100F700078940F3F09F44DC087E591E00E945A0034
:100F80008DE00E9453008AE00E94530010E0B09E62
:100F9000C001B19E900D1124FC01E552FE4F9C0151
:100FA00023523E4F79014901A180AA2051F0D4017A
:100FB0008D914D010E94B10180E20E945300AA94DC
:100FC000F4CF8DE00E9453008AE00E945300B09E4F
:100FD000F001B19EF00D1124E552FE4F608170E0EA
:100FE00084E0759567958A95E1F76115710569F05B
:100FF000D7018C91811109C08091400283839701B0
:1010000042E080913F020E946301F8940E946600D2
:101010007894C6010197F1F7A89573CFECEBF0E057
:10102000108284E48083089584EA8093BC008CE37A
:101030002AE030E09091BC0097FD0AC0815021F475
:101040000E940E0881E00895F9013197F1F7F2CF7F
:101050008091B900887F883041F0803131F0883349
:1010600029F40E940E0888E3089580E00895CF9344
:101070008093BB0084E88093BC008CE32AE030E0DE
:101080009091BC0097FD0AC0815021F40E940E0887
:1010900081E018C0F9013197F1F7F2CFC091B900A2
:1010A000C87FC83171F0C03461F0C03211F0C8346B
:1010B00021F481E00E94F00102C00E940E088C2FF2
:1010C00001C080E0CF910895CF938093BB0084E866
:1010D0008093BC008CE32AE030E09091BC0097FD47
:1010E0000AC0815021F40E940E0881E016C0F90167
:1010F0003197F1F7F2CF8091B900C82FC87FC8327D
:1011000059F0C03329F481E00E94F00180E305C06A
:101110000E940E088C2F01C080E0CF910895882393
:1011200011F084EC01C084E88093BC008CE32AE0D9
:1011300030E09091BC0097FD0AC0815021F40E94DC
:101140000E0881E00895F9013197F1F7F2CF80910F
:10115000B900887F883319F40E940E0888E3089547
:10116000EAE7F0E08081806480838091780090914C
:10117000790081700895CF93DF93DAE00E94B00880
:10118000C82F0E94B008880F8C2B813031F082303C
:1011900031F0D15099F7817003C080E001C081E047
:1011A000DF91CF9108950E94BD06991B79E004C09C
:1011B000991F961708F0961B881F7A95C9F7809596
:1011C0000895AA1BBB1B51E107C0AA1FBB1FA6178E
:1011D000B70710F0A61BB70B881F991F5A95A9F7E0
:1011E00080959095BC01CD0108950E9409090C9449
:1011F000EA090E94E30958F00E94DC0940F029F452
:101200005F3F29F00C94D30951110C941E0A0C94E1
:10121000D9090E94FB0968F39923B1F3552391F38F
:10122000951B550BBB27AA2762177307840738F055
:101230009F5F5F4F220F331F441FAA1FA9F335D0B2
:101240000E2E3AF0E0E832D091505040E695001C66
:10125000CAF72BD0FE2F29D0660F771F881FBB1F20
:10126000261737074807AB07B0E809F0BB0B802DFE
:10127000BF01FF2793585F4F3AF09E3F510578F02A
:101280000C94D3090C941E0A5F3FE4F3983ED4F308
:10129000869577956795B795F7959F5FC9F7880FFE
:1012A000911D9695879597F90895E1E0660F771F50
:1012B000881FBB1F621773078407BA0720F0621BE1
:1012C000730B840BBA0BEE1F88F7E09508950E940C
:1012D000030A88F09F5798F0B92F9927B751B0F0BB
:1012E000E1F0660F771F881F991F1AF0BA95C9F7AA
:1012F00014C0B13091F00E941D0AB1E008950C9421
:101300001D0A672F782F8827B85F39F0B93FCCF3D3
:10131000869577956795B395D9F73EF49095809526
:10132000709561957F4F8F4F9F4F0895E89409C046
:1013300097FB3EF490958095709561957F4F8F4F08
:101340009F4F9923A9F0F92F96E9BB279395F6951E
:10135000879577956795B795F111F8CFFAF4BB0F9C
:1013600011F460FF1BC06F5F7F4F8F4F9F4F16C000
:10137000882311F096E911C0772321F09EE8872F8A
:10138000762F05C0662371F096E8862F70E060E046
:101390002AF09A95660F771F881FDAF7880F9695BF
:1013A000879597F9089597F99F6780E870E060E066
:1013B00008959FEF80EC089500240A9416161706EE
:1013C00018060906089500240A9412161306140636
:1013D00005060895092E0394000C11F4882352F099
:1013E000BB0F40F4BF2B11F460FF04C06F5F7F4F51
:1013F0008F4F9F4F089557FD9058440F551F59F038
:101400005F3F71F04795880F97FB991F61F09F3FF1
:1014100079F087950895121613061406551FF2CF1A
:101420004695F1DF08C0161617061806991FF1CF6A
:1014300086957105610508940895E894BB27662791
:101440007727CB0197F908950F931F93CF93DF93DD
:101450008230910510F482E090E0E0914602F09134
:10146000470220E030E0A0E0B0E0309719F1408181
:1014700051810281138148175907C8F084179507D5
:1014800069F4109731F012960C93129713961C93EF
:1014900027C0009346021093470222C02115310550
:1014A00019F04217530718F49A01BD01EF01DF014B
:1014B000F801DBCF21153105F9F0281B390B243059
:1014C000310580F48A819B816115710521F0FB0152
:1014D0009383828304C09093470280934602FE0167
:1014E000329644C0FE01E20FF31F81939193225084
:1014F0003109398328833AC0209144023091450252
:10150000232B41F4209103013091040130934502D3
:1015100020934402209101013091020121153105EF
:1015200041F42DB73EB74091050150910601241BAF
:10153000350BE0914402F0914502E217F307A0F465
:101540002E1B3F0B2817390778F0AC014E5F5F4F19
:101550002417350748F04E0F5F1F50934502409304
:1015600044028193919302C0E0E0F0E0CF01DF916B
:10157000CF911F910F910895CF93DF93009709F4B6
:1015800081C0FC01329713821282A0914602B09171
:101590004702109781F420813181820F931F20919F
:1015A0004402309145022817390751F5F09345025E
:1015B000E093440267C0ED0120E030E0CE17DF0782
:1015C00040F44A815B819E0141155105F1F0EA0129
:1015D000F5CFD383C28340815181840F951FC817F3
:1015E000D90759F488819981840F951F02969183B8
:1015F00080838A819B81938382832115310529F41D
:10160000F0934702E09346023DC0E901FB83EA8381
:1016100049915991C40FD51FEC17FD0761F48081E2
:101620009181840F951F0296E901998388838281B5
:1016300093819B838A83E0E0F0E012968D919C91E8
:101640001397009719F0FD01DC01F7CF8D919C9164
:1016500011979D012E5F3F4F820F931F20914402EF
:10166000309145022817390769F4309729F4109210
:1016700047021092460202C013821282B0934502C2
:0E168000A0934402DF91CF910895F894FFCF1C
:10168E000100004802200065016A017B0181019082
:10169E00019B0132013E313768002070756D70205C
:1016AE006E3A002073747274733A00207600206CC8
:1016BE003A006E696768740064617900206F6E206D
:1016CE00002064656C6179200073656E6420627918
:1016DE00207273343835007265616420627920722D
:1016EE007334383500696E697400707265737320D7
:1016FE0073656E73206572726F7200656D707479AA
:10170E000073746172742066726F6D206C6F770057
:10171E0070726573732068696768007374617274A0
:0C172E002066726F6D206E6F726D0000FF
:00000001FF
