:100000000C9434000C94FF040C940F050C945100D4
:100010000C9451000C9451000C9472030C945100F8
:100020000C9451000C9451000C9451000C9451000C
:100030000C9451000C9451000C9451000C945100FC
:100040000C9451000C9451000C94D5040C94510064
:100050000C9451000C9451000C9451000C945100DC
:100060000C9451000C94510011241FBECFEFD8E026
:10007000DEBFCDBF14E0A0E0B1E0E8EDF7E102C0E3
:1000800005900D92A030B107D9F724E0A0E0B4E0CC
:1000900001C01D92A13CB207E1F70E9478090C94BF
:1000A000EA0B0C9400009091C00095FFFCCF809368
:1000B000C6000895CF93DF93EC018991882319F04E
:1000C0000E945300FACFDF91CF91089590912E04B2
:1000D0009F3F91F084E1989FF0011124E15DFB4F77
:1000E000838920912C04238B90932C0480932E04DD
:1000F0008F3F11F480932D0408951F93CF93DF93C6
:10010000C82FD62FD43028F080E30E945300D1505E
:10011000F9CFC43678F08C2F64E60E947A09182F44
:1001200080E3810F0E94530084E6189FC0191124B8
:1001300081E009C0D33031F480E30E945300CA301B
:10014000B0F003C080E0CA3070F08C2F6AE00E94EB
:100150007A09D82F80E38D0F0E9453008AE0D89F40
:10016000C019112407C0D23010F4882319F080E39D
:100170000E94530080E38C0FDF91CF911F910C946C
:100180005300CF92DF92EF92FF920F931F93CF9382
:10019000DF93EC01062F15E080E1E82E87E2F82ED0
:1001A0009AE0C92ED12CCE15DF0590F0CE01B70113
:1001B0000E948609062F80E3860F0E9453000E9D41
:1001C000C0010F9D900D1124C81BD90B012F05C034
:1001D000011718F080E30E945300C701B6010E9486
:1001E00086097B0111501130F1F68C2F805DDF9173
:1001F000CF911F910F91FF90EF90DF90CF900C94D3
:1002000053000F931F93CF93DF938C01D62FC42FEE
:1002100097FF07C08DE20E945300119501951109C7
:1002200003C080E20E945300CC2309F18FEF8C0FB2
:10023000D11109C0C82F6C2FC801DF91CF911F9138
:100240000F910C94C1008823A1F04EEF4C0FD130D8
:1002500029F0D23031F464E670E005C06AE070E065
:1002600002C068EE73E0D41748F44D1B07C0DD23CD
:1002700011F3D130B9F46AE070E040E0C8010E94A7
:1002800086099B01C82F642FC9010E94C1008EE21C
:100290000E9453006D2F8C2FDF91CF911F910F91F2
:1002A0000C947D00D23019F068EE73E0E6CF64E67E
:1002B00070E0E3CF8091BB04863618F48CEC90E0BC
:1002C0000DC08091BB04811104C080910001809316
:1002D000BB048091BB0490E0880F991F0197F1F750
:1002E00008959091BB04980F9093BB04F894289ABA
:1002F0005F98ECECF0E03197F1F798E02CEC30E00F
:1003000080FD02C05F9801C05F9AF9013197F1F753
:10031000915011F08695F4CF5F9AE19A78942898DD
:100320000895CF92DF92FF920F931F93CF93DF93A5
:10033000182FC62FF42E6901DFEFD40FD031B8F596
:100340008AEA0E9471010E945A01CF7080E1189FD1
:10035000C00D11248C2F0E9471010E945A018C2F14
:1003600080950E9471010E945A018D2F0E94710197
:100370000E945A018601FA94EFEFFE1661F06801BF
:10038000F80181918F010E947101F6018081D827C7
:100390000E945A01F0CF8D2F0E947101DF91CF9101
:1003A0001F910F91FF90DF90CF900C945A01DF9135
:1003B000CF911F910F91FF90DF90CF900895CF9331
:1003C000C82F90E024E0959587952A95E1F78A302B
:1003D00014F0895C01C0805D0E9453008C2F8F70E7
:1003E0008A3014F0895C01C0805DCF910C94530079
:1003F0008091BD049091BE04089580E090E008953E
:10040000FC01F695E795F695E7959C01232F332798
:10041000269526952695E20FF31FE80FF91FEE0F9C
:10042000FF1F309711F03197F1F720ED37E001977A
:1004300020F0F9013197F1F7FACF089594E99093FC
:10044000BC00882389F08CE32AE030E09091BC0066
:1004500094FD0AC0815021F40E94B30881E0089500
:10046000F9013197F1F7F2CF80E00895CF93C82FCB
:100470000E94B908CC0FC093BB0084E88093BC00F5
:100480008CE32AE030E09091BC0097FD09C08150D8
:1004900019F40E94B30814C0F9013197F1F7F3CFB2
:1004A0008091B900C82FC87FC83151F0C03441F0E5
:1004B000C03241F0C83431F00E94B3088C2F03C021
:1004C00081E001C080E0CF910895EF92FF920F93F9
:1004D0001F93CF93DF93182FEB017A01209711F42C
:1004E000C1E0D0E00E94B908811108C0812F880FB7
:1004F0008F5F0E94DC08811106C009C00E94B90804
:100500008823A1F324C0813011F585E020C0219714
:1005100087012097A9F480E00E943409813011F40A
:1005200086E015C0883599F48091BB00F80181936D
:100530008F01219770F784E98093BC0080E007C0A9
:1005400081E00E943409813059F3803569F3DF91ED
:10055000CF911F910F91FF90EF900895CF92DF926E
:10056000EF92FF920F931F93CF93DF93182FD62E06
:10057000C72EEA017901209711F4C1E0D0E00E9472
:10058000B908811107C0110F812F0E94DC08811169
:1005900006C00AC00E94B9088823A9F347C0813069
:1005A00009F044C082E042C0002349F08C2D0E9433
:1005B0000909882321F08130C9F583E037C08D2DEA
:1005C0000E9409098111F7CF0E94B908882321F000
:1005D000813061F584E02AC081E0810F0E94DC084F
:1005E000882321F0813011F585E020C02197870113
:1005F0002097A9F480E00E943409813011F486E04C
:1006000015C0883599F48091BB00F80181938F0162
:10061000219770F784E98093BC0080E007C081E0F7
:100620000E943409813059F3803569F3DF91CF910D
:100630001F910F91FF90EF90DF90CF900895CF9290
:10064000DF92EF92FF920F931F93CF93DF93C82E09
:10065000EB017A01D22E132F0E94B908811107C035
:100660008C2D880F0E94DC08811106C009C00E94F1
:10067000B9088823A9F32DC0813059F582E029C03B
:10068000002349F08D2F0E940909882321F0813031
:1006900001F583E01EC08C2F0E940909882321F0F8
:1006A0008130B9F484E015C0CD2DD12F8E010E0D0F
:1006B0001F1DC017D10749F089910E94090988239D
:1006C000C1F3813031F485E004C084E98093BC003B
:1006D00080E0DF91CF911F910F91FF90EF90DF901D
:1006E000CF9008951F920F920FB60F9211248F93FF
:1006F0008091BC0481110BC00FB6F894A89580912D
:100700006000886180936000109260000FBE8F913E
:100710000F900FBE0F901F90189591E09093BC041E
:1007200083FD02C098E001C098E28770982B88E1B1
:100730000FB6F894A895809360000FBE9093600068
:10074000FFCF30917A00307820917A002F77209374
:100750007A0020916400216020936400209164005D
:100760002460209364002091640022602093640040
:100770008A309105C1F01092BC0483FD02C028E0CC
:1007800001C028E28770822B98E10FB6F894A895F3
:10079000909360000FBE8093600080916000806441
:1007A000809360000BC00FB6F894A895809160000C
:1007B000886180936000109260000FBE83B7817FD4
:1007C00083BFF89483B7816083BF7894889583B79B
:1007D0008E7F83BF7894332351F0809164008E7FA5
:1007E0008093640080917A00806880937A00809181
:1007F00064008B7F80936400809164008D7F809380
:100800006400089590917C009827907C80937C00F0
:10081000992321F084E190E00E94000285EC80930E
:100820007A0080917A0086FDFCCF8091780020913B
:10083000790090E0922B08958EE40E940204BC019E
:1008400080E090E00E943B0A9B01AC0160E070E018
:100850008CED97E40E949A090E940C0ACB0108953E
:1008600080E090E00895EF92FF920F931F93CF9353
:10087000DF93E0907C0010917A00107851F4909111
:1008800064009E7F9093640090917A0090689093AA
:100890007A008770806480937C0009E0D0E001508A
:1008A000C9F08BE0F82E0E946009C82F0E946009F1
:1008B000880F982F9C2B913039F0923039F0FA94B0
:1008C000F110F1CF927003C090E001C091E0DD0F14
:1008D000D90FE5CFE0927C0011110AC080917A0017
:1008E0008F7780937A0080916400816080936400A8
:1008F0008D2FDF91CF911F910F91FF90EF90089571
:10090000CF92DF92EF92FF920F931F93CF93DF93DB
:10091000E0907C0010917A00107851F4809164008E
:100920008E7F8093640080917A00806880937A0043
:100930000AE0D0E09EE4D92E28ECC22E0150E9F066
:100940008BE0F82ED0927C000E946009C82FC092E4
:100950007C000E946009880F982F9C2B913039F001
:10096000923039F0FA94F110EDCF927003C090E01C
:1009700001C091E0DD0FD90FE1CFE0927C001111B1
:100980000AC080917A008F7780937A00809164000A
:100990008160809364008D2FDF91CF911F910F9123
:1009A000FF90EF90DF90CF9008951F920F920FB6B7
:1009B0000F9211248F939F93EF93FF938091C60022
:1009C0008A3011F08D3021F481E0809304040EC050
:1009D00090910504943150F4E091050491E09E0F4C
:1009E00090930504F0E0EA5FFB4F8083FF91EF9165
:1009F0009F918F910F900FBE0F901F9018951F928F
:100A00000F920FB60F9211248F93E89881E0809394
:100A100095048F910F900FBE0F901F9018951F9205
:100A20000F920FB60F9211242F933F934F935F9322
:100A30006F937F938F939F93AF93BF93EF93FF93A6
:100A4000F89482E391E00197F1F798E080E02CECD4
:100A500030E04B998068915029F0F9013197F1F716
:100A60008695F7CF20912A0430912B04223031054E
:100A7000B1F038F42115310561F021303105C1F1B3
:100A8000BDC023303105E9F12430310509F483C0BC
:100A9000B5C08A3A09F0B2C081E090E019C0209157
:100AA0002704909127042F7092959F702917A9F021
:100AB000909127049095891310C0809127048F701E
:100AC00090919304891711F081110DC083E090E09B
:100AD00090932B0480932A0491C0909127049A3A12
:100AE00039F08A3AC9F210922B0410922A0486C077
:100AF00022E030E030932B0420932A0480932704D3
:100B00007DC0803180F790912C049F3FE9F024E173
:100B1000299FF0011124E15DFB4F338930932C04B0
:100B2000128A3FEF338B30912E043F3F19F490939C
:100B30002E0408C0E0912D042E9FF0011124E15DE8
:100B4000FB4F938B90932D04909326049091260451
:100B50009F3F09F453C0E09126042091270494E1BB
:100B60009E9FF0011124E15DFB4F2083E09126045C
:100B70009E9FF0011124E15DFB4F91E0980F91835E
:100B80008093290484E090E090932B0480932A04BE
:100B90001092280433C0E09126042091280494E1A7
:100BA0009E9FF0011124E15DFB4F3181321311C092
:100BB0002091290482130AC0E09126049E9FF0012F
:100BC0001124E15DFB4F81E0828B8DCF0E94660096
:100BD0008ACFE09126042091280431E0320F30932F
:100BE00028049E9FF0011124E15DFB4FE20FF11DEF
:100BF000828390912904892780932904E19A78942B
:100C0000FF91EF91BF91AF919F918F917F916F91E4
:100C10005F914F913F912F910F900FBE0F901F90BA
:100C20001895CF93DF9380312FEE920730F085EA4D
:100C300091E0DF91CF910C945A0080312EE0920721
:100C400080F060E17EE00E948609262FD82FC92F10
:100C500062E0822F0E947D008AE30E9453008D2F64
:100C60009C2F6CE370E00E948609962FC82F62E0EB
:100C7000892F0E947D008AE30E94530062E08C2F3E
:100C8000DF91CF910C947D008AEA91E00E945A0096
:100C900060E0809193040E947D0083EB91E00E94CC
:100CA0005A0060E080E090E00E94C1008DE00E9468
:100CB00053008AE00E945300E0910204F091030483
:100CC000EE0FFF1FE95FFE4F808191810E945A0065
:100CD0008DE00E9453008AE00E945300809122041C
:100CE0009091230440E062E00E9401018FE20E94A3
:100CF0005300809120049091210440E062E00E9422
:100D000001018BEB91E00E945A008DE00E9453009C
:100D10008AE00E94530080911C0440E061E090E072
:100D20000E94010180E20E94530080911A04909178
:100D30001B0460E00E94C1008FE20E94530080917A
:100D40001F0440E061E090E00E94010180E20E9407
:100D5000530080911D0490911E0460E00E94C10028
:100D60008DE00E9453008AE00E9453008EEB91E0D8
:100D70000E945A00809124049091250460E00E9412
:100D8000C10080E20E9453008091240490912504C8
:100D90008835924018F48FE693E002C082EC91E02F
:100DA0000E945A008DE00E9453008AE00C94530088
:100DB0000E944406199B03C086EC91E002C08BECB4
:100DC00091E00E945A0080E090E00E9411068DE0C0
:100DD0000E9453008AE00E9453008DE00E9453005D
:100DE0008AE00C945300CF93DF931F92CDB7DEB708
:100DF00014BE0FB6F894A895809160008861809326
:100E00006000109260000FBE80917A008F7780930F
:100E10007A008091640081608093640080B780686C
:100E200080BF809164008062809364008091640040
:100E30008860809364008091640080648093640083
:100E4000549A5C98569A5E98219A299838983998BD
:100E50003A985398579A5F9A209A289852981092E5
:100E600094042998809194048E7F809394048091B7
:100E700096048093930410922C0481E080934204A2
:100E800082E08093560483E080936A0484E0809338
:100E90007E048FEF8093920480932E0480932D0420
:100EA00010922B0410922A0480916900837F88603D
:100EB00080936900E99902C0E19AE99A1092950439
:100EC000809169008C7F826080936900E89902C0FC
:100ED000E09AE89AF8941092050410920404789429
:100EE00088E18093C10086E08093C2008CE080930B
:100EF000C4001092C5008091C10080688093C10039
:100F0000789483ED91E00E945A0084E090E092BDD5
:100F100081BD2BEB34E0E6E9F4E02E173F0749F002
:100F2000F89A80B5819381B592B5019692BD81BD45
:100F3000F4CF8DE0809396048FEB94E09093980427
:100F40008093970460E082E190E00E94C1008DE010
:100F50000E9453008AE00E94530005E111E033E152
:100F6000F32EFA94FF20D9F1D8011696ED91FC9159
:100F70001797EA56FB4F14968D919C9115979927D8
:100F80008130910581F050F00297B9F465E08081DD
:100F900091810E94C10083EE91E00DC065E08081E7
:100FA0000E947D000AC045E061E0808191810E943D
:100FB00001018EED91E00E945A0088EE91E00E94BE
:100FC0005A00F801828193810E945A008DE00E94AC
:100FD00053008AE00E945300085F1F4FC2CF8DE08C
:100FE0000E9453008AE00E9453001982809193046A
:100FF0000E94DF018DE00E9453008AE00E945300AE
:101000008AEA0E94DF0180E20E94530085E50E9487
:10101000DF018DE00E9453008AE00E94530080EDC2
:1010200097E00197F1F781E08093BC049FE088E1AD
:101030000FB6F894A895809360000FBE909360005F
:1010400094E1B92E20EDC22E27E0D22E5C9A299A87
:1010500088EE93E00E9400025C98299888EE93E065
:101060000E940002809104048823C9F08CEE91E074
:101070000E945A008DE00E9453008AE00E945300B3
:101080004091050426E034E060E0809193040E94E2
:101090009101F89410920504109204047894F89445
:1010A00000912E040F3F49F0B09EF0011124E15D44
:1010B000FB4F8289811101C00FEF78940F3F09F433
:1010C0004DC08AEF91E00E945A008DE00E945300CB
:1010D0008AE00E94530010E0B09EC001B19E900DC6
:1010E0001124FC01E15DFB4F9C012F5C3B4F79011A
:1010F0004901A180AA2051F0D4018D914D010E9497
:10110000DF0180E20E945300AA94F4CF8DE00E9498
:1011100053008AE00E945300B09EF001B19EF00D92
:101120001124E15DFB4F608170E084E07595679567
:101130008A95E1F76115710569F0D7018C918111EC
:1011400009C0809194048383970142E080919304C5
:101150000E949101F8940E9466007894C60101975C
:10116000F1F7A89573CFECEBF0E0108284E4808374
:10117000089584EA8093BC008CE32AE030E09091EB
:10118000BC0097FD0AC0815021F40E94B30881E0A1
:101190000895F9013197F1F7F2CF8091B900887F76
:1011A000883041F0803131F0883329F40E94B3084F
:1011B00088E3089580E00895CF938093BB0084E88E
:1011C0008093BC008CE32AE030E09091BC0097FD56
:1011D0000AC0815021F40E94B30881E018C0F901CF
:1011E0003197F1F7F2CFC091B900C87FC83171F0E3
:1011F000C03461F0C03211F0C83421F481E00E94A3
:101200001E0202C00E94B3088C2F01C080E0CF9163
:101210000895CF938093BB0084E88093BC008CE357
:101220002AE030E09091BC0097FD0AC0815021F483
:101230000E94B30881E016C0F9013197F1F7F2CFAF
:101240008091B900C82FC87FC83259F0C03329F443
:1012500081E00E941E0280E305C00E94B3088C2F2B
:1012600001C080E0CF910895882311F084EC01C083
:1012700084E88093BC008CE32AE030E09091BC00CD
:1012800097FD0AC0815021F40E94B30881E00895BF
:10129000F9013197F1F7F2CF8091B900887F883357
:1012A00019F40E94B30888E30895EAE7F0E080812A
:1012B0008064808380917800909179008170089596
:1012C000CF93DF93DAE00E945509C82F0E94550999
:1012D000880F8C2B813031F0823031F0D15099F76A
:1012E000817003C080E001C081E0DF91CF9108955B
:1012F0000E94F306991B79E004C0991F961708F025
:10130000961B881F7A95C9F780950895AA1BBB1B69
:1013100051E107C0AA1FBB1FA617B70710F0A61BF5
:10132000B70B881F991F5A95A9F780959095BC0116
:10133000CD0108950E94AE090C948F0A0E94880A7C
:1013400058F00E94810A40F029F45F3F29F00C9484
:10135000780A51110C94C30A0C947E0A0E94A00AC8
:1013600068F39923B1F3552391F3951B550BBB27D4
:10137000AA2762177307840738F09F5F5F4F220F19
:10138000331F441FAA1FA9F335D00E2E3AF0E0E810
:1013900032D091505040E695001CCAF72BD0FE2F5A
:1013A00029D0660F771F881FBB1F261737074807EE
:1013B000AB07B0E809F0BB0B802DBF01FF279358A6
:1013C0005F4F3AF09E3F510578F00C94780A0C94E8
:1013D000C30A5F3FE4F3983ED4F38695779567950B
:1013E000B795F7959F5FC9F7880F911D96958795DB
:1013F00097F90895E1E0660F771F881FBB1F6217FA
:1014000073078407BA0720F0621B730B840BBA0BB7
:10141000EE1F88F7E09508950E94A80A88F09F576C
:1014200098F0B92F9927B751B0F0E1F0660F771F08
:10143000881F991F1AF0BA95C9F714C0B13091F0FE
:101440000E94C20AB1E008950C94C20A672F782F57
:101450008827B85F39F0B93FCCF3869577956795C3
:10146000B395D9F73EF490958095709561957F4F2F
:101470008F4F9F4F0895E89409C097FB3EF49095D5
:101480008095709561957F4F8F4F9F4F9923A9F05D
:10149000F92F96E9BB279395F695879577956795EC
:1014A000B795F111F8CFFAF4BB0F11F460FF1BC030
:1014B0006F5F7F4F8F4F9F4F16C0882311F096E9C3
:1014C00011C0772321F09EE8872F762F05C0662371
:1014D00071F096E8862F70E060E02AF09A95660F2A
:1014E000771F881FDAF7880F9695879597F90895E3
:1014F00097F99F6780E870E060E008959FEF80ECC7
:10150000089500240A941616170618060906089569
:1015100000240A9412161306140605060895092ECF
:101520000394000C11F4882352F0BB0F40F4BF2B3E
:1015300011F460FF04C06F5F7F4F8F4F9F4F08957E
:1015400057FD9058440F551F59F05F3F71F0479574
:10155000880F97FB991F61F09F3F79F08795089559
:10156000121613061406551FF2CF4695F1DF08C078
:10157000161617061806991FF1CF86957105610595
:1015800008940895E894BB2766277727CB0197F93D
:1015900008950F931F93CF93DF938230910510F43A
:1015A00082E090E0E091BF04F091C00420E030E0E0
:1015B000A0E0B0E0309719F14081518102811381A0
:1015C00048175907C8F08417950769F4109731F048
:1015D00012960C93129713961C9327C00093BF0486
:1015E0001093C00422C02115310519F0421753078A
:1015F00018F49A01BD01EF01DF01F801DBCF2115DD
:101600003105F9F0281B390B2430310580F48A812B
:101610009B816115710521F0FB019383828304C0D6
:101620009093C0048093BF04FE01329644C0FE0133
:10163000E20FF31F8193919322503109398328835C
:101640003AC02091BD043091BE04232B41F4209177
:101650000301309104013093BE042093BD04209116
:101660000101309102012115310541F42DB73EB73A
:101670004091050150910601241B350BE091BD04FA
:10168000F091BE04E217F307A0F42E1B3F0B2817BE
:10169000390778F0AC014E5F5F4F2417350748F0EB
:1016A0004E0F5F1F5093BE044093BD0481939193EE
:1016B00002C0E0E0F0E0CF01DF91CF911F910F91E8
:1016C0000895CF93DF93009709F481C0FC0132970E
:1016D00013821282A091BF04B091C004109781F4CC
:1016E00020813181820F931F2091BD043091BE046F
:1016F0002817390751F5F093BE04E093BD0467C085
:10170000ED0120E030E0CE17DF0740F44A815B8135
:101710009E0141155105F1F0EA01F5CFD383C28353
:1017200040815181840F951FC817D90759F48881CA
:101730009981840F951F0296918380838A819B8172
:10174000938382832115310529F4F093C004E0933B
:10175000BF043DC0E901FB83EA8349915991C40F5D
:10176000D51FEC17FD0761F480819181840F951FCF
:101770000296E90199838883828193819B838A837E
:10178000E0E0F0E012968D919C911397009719F08C
:10179000FD01DC01F7CF8D919C9111979D012E5F8A
:1017A0003F4F820F931F2091BD043091BE04281734
:1017B000390769F4309729F41092C0041092BF04DD
:1017C00002C013821282B093BE04A093BD04DF91C5
:0817D000CF910895F894FFCFBA
:1017D800010000C104200008020D021E0224023389
:1017E800023E026F034E0251020000000068026CC4
:1017F80002010001007E02820201000300940299A6
:101808000201000900C402C90201000B00F002F441
:101818000202000D000403090302000F0019031E51
:1018280003020011002E033303020013004403488F
:1018380003020015006203660302001700750379AE
:1018480003020019009203960302001B00B003B3C1
:101858000302001D00B003B30302001D00C103C44E
:101868000302001F00D003D40302002100E903EEA5
:1018780003020023003E313768002070756D702028
:101888006E3A002073747274733A00207600206CEC
:101898003A0064617900206F6E20002064656C61F5
:1018A80079200070756D705F646174613A00206220
:1018B80061720020736563002020200073656E64E8
:1018C8002062792072733438350072656164206251
:1018D8007920727334383500696E697400707265E6
:1018E80073732073656E73206572726F7200656D15
:1018F8007074790073746172742066726F6D206CF5
:101908006F77007072657373206869676800737415
:101918006172742066726F6D206E6F726D00616403
:101928000070756D70206164647265737320666FF2
:10193800722072733438350070316F0070726573BD
:10194800733120616463206F66667365740070325A
:101958006F0070726573733220616463206F66660E
:101968007365740065706469006572726F6E656F87
:101978007573207072657373757265206469666625
:1019880020666F722032206D6561737572656D65B2
:101998006E74730065706D78006572726F6E656F36
:1019A80075732070726573737572652070756D70CC
:1019B8002063616E206E6F742065786365656400CE
:1019C800656F7400656D7074792026206F6E2074C1
:1019D800696D650065646D6E00656D70747920646D
:1019E800656C6179206D696E0065646D7800656D60
:1019F8007074792064656C6179206D617800656424
:101A0800737400656D7074792064656C61792073F6
:101A1800746570006461680064656C617920616652
:101A2800746572206869676820707265737375726F
:101A38006500646E690064656C6179206174206E6C
:101A48006967687400646C700064656C6179206C07
:101A58006F7720707265737375726520636865634C
:101A68006B006468700064656C61792068696768F8
:101A780020707265737375726520636865636B00A7
:101A8800646D0064656C6179206D6561737572655C
:101A98000064730064656C6179207374617274000A
:101AA8006470650064656C61792070726573737524
:101AB8007265206572726F7200746D706F00746960
:101AC8006D65206D61782070756D70206F6E0000F7
:00000001FF
