:100000000C9434000C94B0050C94C0050C94510071
:100010000C9451000C9451000C947C030C945100EE
:100020000C9451000C9451000C9451000C9451000C
:100030000C9451000C9451000C9451000C945100FC
:100040000C9451000C9451000C9486050C945100B2
:100050000C9451000C9451000C9451000C945100DC
:100060000C9451000C94510011241FBECFEFD8E026
:10007000DEBFCDBF11E0A0E0B1E0E6E5FBE102C0EC
:1000800005900D92A23FB107D9F722E0A2EFB1E0AF
:1000900001C01D92A439B207E1F70E94DC0A0C945A
:1000A000A90D0C9400009091C00095FFFCCF8093A7
:1000B000C6000895CF93DF93EC018991882319F04E
:1000C0000E945300FACFDF91CF91089590912202C0
:1000D0009F3F91F084E1989FF0011124ED5DFD4F69
:1000E000838920912002238B909320028093220207
:1000F0008F3F11F4809321020895F8948091220299
:100100008F3F51F094E1899FF0011124ED5DFD4F87
:100110009289911101C08FEF789408951F93CF9326
:10012000DF93C82FD62F843670F064E60E94DE0A73
:10013000182F80E3810F0E94530084E6189FC01996
:10014000112481E006C0633018F080E30E94530060
:1001500080E0CA3070F08C2F6AE00E94DE0AD82F4F
:1001600080E38D0F0E9453008AE0D89FC0191124AC
:1001700007C0D23010F4882319F080E30E945300A6
:1001800080E38C0FDF91CF911F910C9453008091ED
:100190008E02863618F48CEC90E00DC080918E02B1
:1001A000811104C08091000180938E0280918E02A3
:1001B00090E0880F991F0197F1F70895CF92DF9291
:1001C000EF92FF920F931F93CF93DF93EC0115E013
:1001D00000E080E1E82E87E2F82E9AE0C92ED12CCB
:1001E000CE15DF0590F0CE01B7010E94EA0A062F76
:1001F00080E3860F0E9453000E9DC0010F9D900D5D
:100200001124C81BD90B012F05C0011718F080E37A
:100210000E945300C701B6010E94EA0A7B011150F7
:100220001130F1F68C2F805DDF91CF911F910F91EE
:10023000FF90EF90DF90CF900C9453001F93CF93DB
:10024000DF93EC01162F97FF07C08DE20E94530049
:10025000D195C195D10903C080E20E9453001111CC
:1002600006C0CE01DF91CF911F910C94DE001130BA
:1002700029F0123031F068EE73E005C06AE070E0FA
:1002800002C064E670E0CE010E94EA0AC82FCB01EA
:100290000E94DE008EE20E945300612F8C2FDF91BE
:1002A000CF911F910C948E0090918E02980F909395
:1002B0008E02F894289A5F98ECECF0E03197F1F711
:1002C00098E02CEC30E080FD02C05F9801C05F9A9E
:1002D000F9013197F1F7915011F08695F4CF5F9ABB
:1002E000E19A789428980895CF92DF92FF920F9325
:1002F0001F93CF93DF93182FC62FF42E6901DFEFE2
:10030000D40FD031B8F58AEA0E9454010E94C70088
:10031000CF7080E1189FC00D11248C2F0E945401D2
:100320000E94C7008C2F80950E9454010E94C70034
:100330008D2F0E9454010E94C7008601FA94EFEFAE
:10034000FE1661F06801F80181918F010E9454014D
:10035000F6018081D8270E94C700F0CF8D2F0E9420
:100360005401DF91CF911F910F91FF90DF90CF90BB
:100370000C94C700DF91CF911F910F91FF90DF90F8
:10038000CF900895CF93C82F90E024E0959587955E
:100390002A95E1F78A3014F0895C01C0805D0E94E3
:1003A00053008C2F8F708A3014F0895C01C0805DFF
:1003B000CF910C945300CF9394E1899F9001112425
:1003C000F901ED5DFD4F84E08283C0918C02C3830F
:1003D0002B5D3D4F42E0809187020E94740185E1D0
:1003E00091E00E945A008C2F0E94C2018DE00E9471
:1003F00053008AE00E94530080ED97E00197F1F7E7
:10040000CF9108958091900290919102089580E09B
:1004100090E00895FC01F695E795F695E7959C0127
:10042000232F3327269526952695E20FF31FE80FF5
:10043000F91FEE0FFF1F309711F03197F1F720ED04
:1004400037E0019720F0F9013197F1F7FACF0895DD
:1004500094E99093BC00882389F08CE32AE030E093
:100460009091BC0094FD0AC0815021F40E94E109E2
:1004700081E00895F9013197F1F7F2CF80E0089516
:10048000CF93C82F0E94E709CC0FC093BB0084E82C
:100490008093BC008CE32AE030E09091BC0097FD93
:1004A00009C0815019F40E94E10914C0F901319783
:1004B000F1F7F3CF8091B900C82FC87FC83151F050
:1004C000C03441F0C03241F0C83431F00E94E1093B
:1004D0008C2F03C081E001C080E0CF910895EF929E
:1004E000FF920F931F93CF93DF93182FEB017A01A5
:1004F000209711F4C1E0D0E00E94E709811108C003
:10050000812F880F8F5F0E940A0A811106C009C0DF
:100510000E94E7098823A1F324C0813011F585E00A
:1005200020C0219787012097A9F480E00E94620AE9
:10053000813011F486E015C0883599F48091BB00B4
:10054000F80181938F01219770F784E98093BC00B3
:1005500080E007C081E00E94620A813059F3803553
:1005600069F3DF91CF911F910F91FF90EF90089564
:10057000CF92DF92EF92FF920F931F93CF93DF936F
:10058000182FD62EC72EEA017901209711F4C1E069
:10059000D0E00E94E709811107C0110F812F0E944E
:1005A0000A0A811106C00AC00E94E7098823A9F33C
:1005B00047C0813009F044C082E042C0002349F0C6
:1005C0008C2D0E94370A882321F08130C9F583E001
:1005D00037C08D2D0E94370A8111F7CF0E94E7099D
:1005E000882321F0813061F584E02AC081E0810F09
:1005F0000E940A0A882321F0813011F585E020C08D
:10060000219787012097A9F480E00E94620A813037
:1006100011F486E015C0883599F48091BB00F8018B
:1006200081938F01219770F784E98093BC0080E06B
:1006300007C081E00E94620A813059F3803569F376
:10064000DF91CF911F910F91FF90EF90DF90CF90AE
:100650000895CF92DF92EF92FF920F931F93CF9363
:10066000DF93C82EEB017A01D22E132F0E94E709E7
:10067000811107C08C2D880F0E940A0A811106C0C3
:1006800009C00E94E7098823A9F32DC0813059F5DC
:1006900082E029C0002349F08D2F0E94370A882369
:1006A00021F0813001F583E01EC08C2F0E94370AB3
:1006B000882321F08130B9F484E015C0CD2DD12FED
:1006C0008E010E0D1F1DC017D10749F089910E94A0
:1006D000370A8823C1F3813031F485E004C084E90E
:1006E0008093BC0080E0DF91CF911F910F91FF902C
:1006F000EF90DF90CF9008951F920F920FB60F9258
:1007000011248F9380918F0281110BC00FB6F89442
:10071000A8958091600088618093600010926000CD
:100720000FBE8F910F900FBE0F901F90189591E004
:1007300090938F0283FD02C098E001C098E2877019
:10074000982B88E10FB6F894A895809360000FBEAF
:1007500090936000FFCFCF93C0917A0020917A00F0
:100760002F7720937A002091640021602093640009
:100770002091640024602093640020916400226032
:10078000209364000E94920A80E00E94830AC7FFBF
:100790000AC0809164008E7F8093640080917A000B
:1007A000806880937A00809164008B7F80936400DE
:1007B000809164008D7F80936400CF910895909123
:1007C0007C009827907C80937C00992321F084E121
:1007D00090E00E940A0285EC80937A0080917A0072
:1007E00086FDFCCF809178002091790090E0922BDB
:1007F00008958EE40E94DF03BC0180E090E00E9437
:10080000FA0B9B01AC0160E070E08CED97E40E9474
:10081000590B0E94CB0BCB0108950F931F93CF93DD
:10082000DF93CDB7DEB72C970FB6F894DEBF0FBEBF
:10083000CDBF809164008E7F8093640080917A00A8
:10084000806880937A000E94F9030E94F9030E9455
:10085000F9030E94F9030E94F9039A87898782E4C9
:100860000E94DF0398878F8380E40E94DF039A83CE
:10087000898381E40E94DF039D838C8383E40E944B
:10088000DF039C878B8780917A008F7780937A0033
:10089000809164008160809364002F813885E985B0
:1008A000FA85A2E3B5E00E941D0B9B01AC018AE032
:1008B00055954795379527958A95D1F7DF010E9481
:1008C0002C0B28EE33E040E050E00E94FE0A38870F
:1008D0002F8309811A818DE00E9453008AE00E94D3
:1008E000530008361105B0F0980127563109A09140
:1008F0001402B09115020E941D0B9B01AC01AAE0ED
:10090000B0E00E942C0B20E034E840E050E00E9470
:10091000FE0A01C020E02B830C811D818DE00E9426
:1009200053008AE00E94530004361105B0F098018C
:1009300023563109A0911402B09115020E941D0B9B
:100940009B01AC01AAE0B0E00E942C0B20E034E84F
:1009500040E050E00E94FE0A01C020E02E83F8949F
:1009600089859A8590931702809316028F819885C6
:10097000909315028093140289819A8190930F02BB
:1009800080930E028B81809310028C819D819093C5
:100990001202809311028E81809313028B859C85B5
:1009A0009093190280931802789480E02C960FB6E9
:1009B000F894DEBF0FBECDBFDF91CF911F910F9195
:1009C000089580E090E00895EF92FF920F931F93B7
:1009D000CF93DF93E0907C0010917A00107851F46F
:1009E000909164009E7F9093640090917A0090684B
:1009F00090937A008770806480937C0009E0D0E057
:100A00000150C9F08BE0F82E0E94C40AC82F0E9442
:100A1000C40A880F982F9C2B913039F0923039F00E
:100A2000FA94F110F1CF927003C090E001C091E010
:100A3000DD0FD90FE5CFE0927C0011110AC0809143
:100A40007A008F7780937A00809164008160809330
:100A500064008D2FDF91CF911F910F91FF90EF9048
:100A60000895CF92DF92EF92FF920F931F93CF934F
:100A7000DF93E0907C0010917A00107851F480911F
:100A800064008E7F8093640080917A0080688093F8
:100A90007A000AE0D0E09EE4D92E28ECC22E015064
:100AA000E9F08BE0F82ED0927C000E94C40AC82F97
:100AB000C0927C000E94C40A880F982F9C2B913012
:100AC00039F0923039F0FA94F110EDCF927003C002
:100AD00090E001C091E0DD0FD90FE1CFE0927C0002
:100AE00011110AC080917A008F7780937A008091EB
:100AF00064008160809364008D2FDF91CF911F91FE
:100B00000F91FF90EF90DF90CF9008951F920F927A
:100B10000FB60F9211248F939F93EF93FF938091C1
:100B2000C6008A3011F08D3021F481E08093F60107
:100B30000EC09091F701943150F4E091F70191E0EB
:100B40009E0F9093F701F0E0E850FE4F8083FF91F5
:100B5000EF919F918F910F900FBE0F901F9018955E
:100B60001F920F920FB60F9211248F93E89881E095
:100B700080938D028F910F900FBE0F901F9018954C
:100B80001F920F920FB60F9211242F933F934F9302
:100B90005F936F937F938F939F93AF93BF93EF93E5
:100BA000FF93F89482E391E00197F1F798E080E0F9
:100BB0002CEC30E04B998068915029F0F901319785
:100BC000F1F78695F7CF20911E0230911F02223057
:100BD0003105B1F038F42115310561F021303105CE
:100BE000C1F1BDC023303105E9F12430310509F4EC
:100BF00083C0B5C08A3A09F0B2C081E090E019C064
:100C000020911B0290911B022F7092959F702917C3
:100C1000A9F090911B029095891310C080911B023E
:100C20008F7090918702891711F081110DC083E0B8
:100C300090E090931F0280931E0291C090911B023E
:100C40009A3A39F08A3AC9F210921F0210921E02A3
:100C500086C022E030E030931F0220931E02809372
:100C60001B027DC0803180F7909120029F3FE9F008
:100C700024E1299FF0011124ED5DFD4F338930936C
:100C80002002128A3FEF338B309122023F3F19F44A
:100C90009093220208C0E09121022E9FF0011124BE
:100CA000ED5DFD4F938B9093210290931A029091EA
:100CB0001A029F3F09F453C0E0911A0220911B02CF
:100CC00094E19E9FF0011124ED5DFD4F2083E091A2
:100CD0001A029E9FF0011124ED5DFD4F91E0980FE7
:100CE000918380931D0284E090E090931F02809393
:100CF0001E0210921C0233C0E0911A0220911C02C5
:100D000094E19E9FF0011124ED5DFD4F318132137E
:100D100011C020911D0282130AC0E0911A029E9F09
:100D2000F0011124ED5DFD4F81E0828B8DCF0E949B
:100D300066008ACFE0911A0220911C0231E0320F46
:100D400030931C029E9FF0011124ED5DFD4FE20FD8
:100D5000F11D828390911D02892780931D02E19AE3
:100D60007894FF91EF91BF91AF919F918F917F9177
:100D70006F915F914F913F912F910F900FBE0F9008
:100D80001F901895CF93DF9380312FEE920730F0AC
:100D900082E291E0DF91CF910C945A0080312EE0F5
:100DA000920780F060E17EE00E94EA0A262FD82FA9
:100DB000C92F62E0822F0E948E008AE30E945300B6
:100DC0008D2F9C2F6CE370E00E94EA0A962FC82FAB
:100DD00062E0892F0E948E008AE30E94530062E045
:100DE0008C2FDF91CF910C948E0087E291E00E94CE
:100DF0005A0060E0809187020E948E0080E391E0BB
:100E00000E945A0080918802909189020E94DE001F
:100E10008DE00E9453008AE00E945300E091F401AB
:100E2000F091F501EE0FFF1FE95FFE4F8081918188
:100E30000E945A008DE00E9453008AE00E945300F5
:100E4000809116029091170262E00E941E018FE2CB
:100E50000E945300809114029091150262E00E945A
:100E60001E0188E391E00E945A008DE00E94530029
:100E70008AE00E9453008091100261E090E00E949D
:100E80001E0180E20E94530080910E0290910F0299
:100E90000E94DE008FE20E9453008091130261E005
:100EA00090E00E941E0180E20E9453008091110296
:100EB000909112020E94DE008DE00E9453008AE0B1
:100EC0000E9453008BE391E00E945A008091180227
:100ED000909119020E94DE0080E20E9453008091EE
:100EE0001802909119028835924018F48FE391E02E
:100EF00002C085E491E00E945A008DE00E945300F8
:100F00008AE00C9453000E94F506199B09C089E4FD
:100F100091E00E945A0080918A0290918B0208C051
:100F20008EE491E00E945A0080910C0290910D0293
:100F30000E94C2068DE00E9453008AE00E94530086
:100F40008DE00E9453008AE00C9453007F928F92B0
:100F50009F92AF92BF92CF92DF92EF92FF920F9348
:100F60001F93CF93DF9386E090E00E94920A84E083
:100F70000E94830A81E080938F029FE088E10FB690
:100F8000F894A895809360000FBE909360000E9433
:100F90007D00F82E8FEFF81609F4F1C0CF2CD12C7C
:100FA00094E1F99E80011124F801ED5DFD4F4F01A0
:100FB000C081D0E094E0D595C7959A95E1F77C2E55
:100FC00086E591E00E945A0060E08C2F0E948E001E
:100FD0008AE30E9453000B5D1D4F5801F401E1802C
:100FE000EE2051F0F50181915F010E94C20180E283
:100FF0000E945300EA94F4CF8DE00E9453008AE0EF
:101000000E945300772009F4B6C0F8018081823035
:1010100009F440C020F5882309F48FC0813009F01D
:10102000AAC00E940D048091100294E19C9DF001E1
:101030009D9DF00D1124ED5DFD4F83838091130282
:101040008483980143E06C2F809187020E94740191
:1010500082E691E00E945A000E94F50688C0843022
:1010600009F470C0D0F1853009F085C08DE991E0B8
:101070000E945A008091100261E090E00E941E01DF
:101080008FE20E9453008091130261E090E00E9481
:101090001E0167C080918C0287FD4FC08FE691E0F2
:1010A0000E945A008DE00E9453008AE00E94530083
:1010B000299A8091880290918902019690938902E1
:1010C0008093880210928B0210928A0280918C0287
:1010D000817F816080938C0230C0299880918C023E
:1010E0008E7F80938C028EE791E00E945A008DE003
:1010F0000E9453008AE00E94530084E18C9DF0011D
:101100008D9DF00D1124ED5DFD4F048110E0102F39
:1011100000278381080F111D10930D0200930C020C
:101120008FE491E00E945A00C8010E94DE008DE029
:101130000E9453008AE00E9453006C2F8F2D0E9462
:10114000DB0119C08EE891E00E945A0084E18C9D79
:10115000F0018D9DF00D1124ED5DFD4F83810E9406
:10116000C2018DE00E9453008AE00E94530080ED8E
:1011700097E00197F1F7F8940E94660078948091C7
:101180008D02F89410928D02E89902C0E09AE89AD4
:101190007894882341F00E940D040E94830780ED1B
:1011A00097E00197F1F7DF91CF911F910F91FF9099
:1011B000EF90DF90CF90BF90AF909F908F907F90F7
:1011C0000895CF93DF931F92CDB7DEB714BE0FB64D
:1011D000F894A895809160008861809360001092D7
:1011E00060000FBE80917A008F7780937A008091A3
:1011F000640081608093640080B7806880BF8091C4
:1012000064008062809364008091640088608093B1
:10121000640080916400806480936400549A5C98B8
:10122000569A5E985398579A5F9A209A2898219ACE
:101230002998F999FECF8FEF93E092BD81BDF89A7E
:1012400080B5809387021092200281E0809336025D
:1012500082E080934A0283E080935E0284E0809380
:1012600072028FEF80938602809322028093210284
:1012700010921F0210921E0280916900837F886085
:1012800080936900E99902C0E19AE99AF894109272
:10129000F7011092F601789418E11093C10086E0EE
:1012A0008093C2008CE08093C4001092C5008091AE
:1012B000C10080688093C100789419828091870270
:1012C0000E94C2018DE00E9453008AE00E945300F8
:1012D0008AEA0E94C20180E20E94530085E50E94D2
:1012E000C2018DE00E9453008AE00E94530080ED0D
:1012F00097E00197F1F781E080938F028FE00FB6BE
:10130000F894A895109360000FBE8093600094E15C
:10131000B92E20EDC22E27E0D22E5C9A299A0E9487
:10132000A6075C9829980E94A6070E947D008F3F1F
:1013300009F442C0E82EF12CBE9C8001BF9C100D28
:101340001124F801ED5DFD4F0B5D1D4F4801A1809B
:10135000AA2051F0D4018D914D010E94C20180E27A
:101360000E945300AA94F4CF8DE00E9453008AE0BB
:101370000E945300BE9CF001BF9CF00D1124ED5D56
:10138000FD4F608170E084E0759567958A95E1F77F
:101390006115710569F0D8018C91811109C08091A6
:1013A0008C028383980142E0809187020E9474013D
:1013B000F8940E9466007894C6010197F1F7A89509
:1013C000ACCFECEBF0E0108284E48083089584EAF3
:1013D0008093BC008CE32AE030E09091BC0097FD44
:1013E0000AC0815021F40E94E10981E00895F901C9
:1013F0003197F1F7F2CF8091B900887F883041F0C2
:10140000803131F0883329F40E94E10988E308959E
:1014100080E00895CF938093BB0084E88093BC0064
:101420008CE32AE030E09091BC0097FD0AC0815027
:1014300021F40E94E10981E018C0F9013197F1F728
:10144000F2CFC091B900C87FC83171F0C03461F0EB
:10145000C03211F0C83421F481E00E94280202C099
:101460000E94E1098C2F01C080E0CF910895CF93B5
:101470008093BB0084E88093BC008CE32AE030E0DA
:101480009091BC0097FD0AC0815021F40E94E109AF
:1014900081E016C0F9013197F1F7F2CF8091B900E0
:1014A000C82FC87FC83259F0C03329F481E00E94A8
:1014B000280280E305C00E94E1098C2F01C080E072
:1014C000CF910895882311F084EC01C084E88093C3
:1014D000BC008CE32AE030E09091BC0097FD0AC08C
:1014E000815021F40E94E10981E00895F9013197CA
:1014F000F1F7F2CF8091B900887F883319F40E9408
:10150000E10988E3089593B7917F892B83BFF8940D
:1015100083B7816083BF7894889583B78E7F83BFBC
:10152000789408958A309105C1F010928F0283FD5E
:1015300002C028E001C028E28770822B98E10FB634
:10154000F894A895909360000FBE809360008091FE
:10155000600080648093600008950FB6F894A895A9
:1015600080916000886180936000109260000FBEDF
:101570000895EAE7F0E080818064808380917800BC
:101580009091790081700895CF93DF93DAE00E9403
:10159000B90AC82F0E94B90A880F8C2B813031F00C
:1015A000823031F0D15099F7817003C080E001C0E2
:1015B00081E0DF91CF9108950E94E108991B79E0C5
:1015C00004C0991F961708F0961B881F7A95C9F7D3
:1015D00080950895AA1BBB1B51E107C0AA1FBB1F22
:1015E000A617B70710F0A61BB70B881F991F5A95AF
:1015F000A9F780959095BC01CD010895052E97FB24
:101600001EF400940E94150B57FD07D00E94370B63
:1016100007FC03D04EF40C94150B50954095309573
:1016200021953F4F4F4F5F4F08959095809570954E
:1016300061957F4F8F4F9F4F0895A29FB001B39F39
:10164000C001A39F700D811D1124911DB29F700DCB
:10165000811D1124911D08950E941D0BA59F900DC1
:10166000B49F900DA49F800D911D11240895A1E2B7
:101670001A2EAA1BBB1BFD010DC0AA1FBB1FEE1F0C
:10168000FF1FA217B307E407F50720F0A21BB30B57
:10169000E40BF50B661F771F881F991F1A9469F7D3
:1016A00060957095809590959B01AC01BD01CF012F
:1016B00008950E946D0B0C944E0C0E94470C58F03C
:1016C0000E94400C40F029F45F3F29F00C94370C45
:1016D00051110C94820C0C943D0C0E945F0C68F329
:1016E0009923B1F3552391F3951B550BBB27AA27DB
:1016F00062177307840738F09F5F5F4F220F331F15
:10170000441FAA1FA9F335D00E2E3AF0E0E832D0DC
:1017100091505040E695001CCAF72BD0FE2F29D0DF
:10172000660F771F881FBB1F261737074807AB07B1
:10173000B0E809F0BB0B802DBF01FF2793585F4F26
:101740003AF09E3F510578F00C94370C0C94820CC3
:101750005F3FE4F3983ED4F3869577956795B79508
:10176000F7959F5FC9F7880F911D9695879597F913
:101770000895E1E0660F771F881FBB1F621773078C
:101780008407BA0720F0621B730B840BBA0BEE1FA1
:1017900088F7E09508950E94670C88F09F5798F0AD
:1017A000B92F9927B751B0F0E1F0660F771F881F66
:1017B000991F1AF0BA95C9F714C0B13091F00E9480
:1017C000810CB1E008950C94810C672F782F882745
:1017D000B85F39F0B93FCCF3869577956795B395A7
:1017E000D9F73EF490958095709561957F4F8F4F16
:1017F0009F4F0895E89409C097FB3EF4909580951B
:10180000709561957F4F8F4F9F4F9923A9F0F92FC6
:1018100096E9BB279395F695879577956795B79544
:10182000F111F8CFFAF4BB0F11F460FF1BC06F5F2A
:101830007F4F8F4F9F4F16C0882311F096E911C03C
:10184000772321F09EE8872F762F05C0662371F05D
:1018500096E8862F70E060E02AF09A95660F771F71
:10186000881FDAF7880F9695879597F9089597F965
:101870009F6780E870E060E008959FEF80EC089536
:1018800000240A941616170618060906089500245F
:101890000A9412161306140605060895092E0394D9
:1018A000000C11F4882352F0BB0F40F4BF2B11F44D
:1018B00060FF04C06F5F7F4F8F4F9F4F089557FDAC
:1018C0009058440F551F59F05F3F71F04795880FAE
:1018D00097FB991F61F09F3F79F087950895121645
:1018E00013061406551FF2CF4695F1DF08C01616F1
:1018F00017061806991FF1CF8695710561050894A2
:101900000895E894BB2766277727CB0197F90895B8
:101910000F931F93CF93DF938230910510F482E0F1
:1019200090E0E0919202F091930220E030E0A0E09C
:10193000B0E0309719F1408151810281138148173D
:101940005907C8F08417950769F4109731F012967B
:101950000C93129713961C9327C000939202109336
:10196000930222C02115310519F04217530718F4CC
:101970009A01BD01EF01DF01F801DBCF211531052F
:10198000F9F0281B390B2430310580F48A819B81C2
:101990006115710521F0FB019383828304C090934C
:1019A000930280939202FE01329644C0FE01E20F40
:1019B000F31F8193919322503109398328833AC0D0
:1019C0002091900230919102232B41F42091030148
:1019D00030910401309391022093900220910101F3
:1019E000309102012115310541F42DB73EB74091E8
:1019F000050150910601241B350BE0919002F091F6
:101A00009102E217F307A0F42E1B3F0B28173907AA
:101A100078F0AC014E5F5F4F2417350748F04E0F4A
:101A20005F1F50939102409390028193919302C063
:101A3000E0E0F0E0CF01DF91CF911F910F91089589
:101A4000CF93DF93009709F481C0FC013297138292
:101A50001282A0919202B0919302109781F420819A
:101A60003181820F931F20919002309191022817AB
:101A7000390751F5F0939102E093900267C0ED01B0
:101A800020E030E0CE17DF0740F44A815B819E0101
:101A900041155105F1F0EA01F5CFD383C2834081AE
:101AA0005181840F951FC817D90759F488819981EE
:101AB000840F951F0296918380838A819B819383F3
:101AC00082832115310529F4F0939302E093920269
:101AD0003DC0E901FB83EA8349915991C40FD51FA9
:101AE000EC17FD0761F480819181840F951F0296A8
:101AF000E90199838883828193819B838A83E0E0D3
:101B0000F0E012968D919C911397009719F0FD01CA
:101B1000DC01F7CF8D919C9111979D012E5F3F4F76
:101B2000820F931F2091900230919102281739075C
:101B300069F4309729F4109293021092920202C035
:101B400013821282B0939102A0939002DF91CF9101
:061B50000895F894FFCF98
:101B560001000094022000AC01B101C201C801D706
:101B660001E2013F017265706C79207374617465DE
:101B76003A003E313768002070756D70206E3A006D
:101B86002073747274733A00207600206C3A006EEB
:101B9600696768740064617900206F6E20002064B4
:101BA600656C6179200072733438352066726F6D0A
:101BB60020007265706C792070726573733A002A22
:101BC60072733438352070756D705F6F6E002A72CF
:101BD600733438352070756D705F6F666600726598
:101BE60063696576652073746174653A007265632E
:101BF600696576652070726573733A00696E6974FB
:101C06000070726573732073656E73206572726FF0
:101C16007200656D707479007374617274206672F7
:101C26006F6D206C6F7700707265737320686967DB
:101C3600680073746172742066726F6D206E6F72C5
:021C46006D002F
:00000001FF
