:100000000C9434000C9432050C9442050C9451006D
:100010000C9451000C9451000C949F030C945100CB
:100020000C9451000C9451000C9451000C9451000C
:100030000C9451000C9451000C9451000C945100FC
:100040000C9451000C9451000C9402050C94510036
:100050000C9451000C9451000C9451000C945100DC
:100060000C9451000C94510011241FBECFEFD8E026
:10007000DEBFCDBF14E0A0E0B1E0EAE1F9E102C0EB
:1000800005900D92A430B107D9F724E0A4E0B4E0C4
:1000900001C01D92A63CB207E1F70E94190A0C9418
:1000A0008B0C0C9400009091C00095FFFCCF8093C6
:1000B000C6000895CF93DF93EC018991882319F04E
:1000C0000E945300FACFDF91CF91089590913304AD
:1000D0009F3F91F084E1989FF0011124EC5CFB4F6D
:1000E000838920913104238B9093310480933304CE
:1000F0008F3F11F48093320408951F93CF93DF93C1
:10010000C82FD62FD43028F080E30E945300D1505E
:10011000F9CFC43678F08C2F64E60E941B0A182FA2
:1001200080E3810F0E94530084E6189FC0191124B8
:1001300081E009C0D33031F480E30E945300CA301B
:10014000B0F003C080E0CA3070F08C2F6AE00E94EB
:100150001B0AD82F80E38D0F0E9453008AE0D89F9E
:10016000C019112407C0D23010F4882319F080E39D
:100170000E94530080E38C0FDF91CF911F910C946C
:100180005300CF92DF92EF92FF920F931F93CF9382
:10019000DF93EC01062F15E080E1E82E87E2F82ED0
:1001A0009AE0C92ED12CCE15DF0590F0CE01B70113
:1001B0000E94270A062F80E3860F0E9453000E9D9F
:1001C000C0010F9D900D1124C81BD90B012F05C034
:1001D000011718F080E30E945300C701B6010E9486
:1001E000270A7B0111501130F1F68C2F805DDF91D1
:1001F000CF911F910F91FF90EF90DF90CF900C94D3
:1002000053000F931F93CF93DF938C01D62FC42FEE
:1002100097FF07C08DE20E945300119501951109C7
:1002200003C080E20E945300CC2309F18FEF8C0FB2
:10023000D11109C0C82F6C2FC801DF91CF911F9138
:100240000F910C94C1008823A1F04EEF4C0FD130D8
:1002500029F0D23031F464E670E005C06AE070E065
:1002600002C068EE73E0D41748F44D1B07C0DD23CD
:1002700011F3D130B9F46AE070E040E0C8010E94A7
:10028000270A9B01C82F642FC9010E94C1008EE27A
:100290000E9453006D2F8C2FDF91CF911F910F91F2
:1002A0000C947D00D23019F068EE73E0E6CF64E67E
:1002B00070E0E3CFCF93DF9398E0899FE0011124B2
:1002C000DE01AB5EBE4F1696ED91FC911797E55699
:1002D000FB4F14968D919C9115979927813091052C
:1002E00081F050F00297B9F465E0808191810E941D
:1002F000C1008AEA91E00DC065E080810E947D0026
:100300000AC045E061E0808191810E94010185EA97
:1003100091E00E945A0080E20E94530087E20E940E
:100320005300CB5EDE4F888199810E945A0087E29C
:100330000E9453008A819B810E945A008DE00E9496
:1003400053008AE0DF91CF910C945300CF93C0E02B
:100350008C2F0E945A01CF5FC231D1F7CF910895FF
:100360008091C004863618F48CEC90E00DC080912A
:10037000C004811104C0809100018093C004809169
:10038000C00490E0880F991F0197F1F7089584E069
:1003900090E092BD81BDEBE9F4E084E0E03CF80739
:1003A00049F0F89A80B5819381B592B5019692BDD6
:1003B00081BDF3CF08959091C004980F9093C0042D
:1003C000F894289A5F98ECECF0E03197F1F798E018
:1003D0002CEC30E080FD02C05F9801C05F9AF9010B
:1003E0003197F1F7915011F08695F4CF5F9AE19A29
:1003F000789428980895982FF89A80B5981751F016
:1004000090BDFA9AF99AF999FECFF89A20B581E051
:10041000921301C080E00895CF93C82F90E024E0AC
:10042000959587952A95E1F78A3014F0895C01C08B
:10043000805D0E9453008C2F8F708A3014F0895C8D
:1004400001C0805DCF910C9453008091C2049091C3
:10045000C304089580E090E00895FC01F695E795C7
:10046000F695E7959C01232F33272695269526950B
:10047000E20FF31FE80FF91FEE0FFF1F309711F087
:100480003197F1F720ED37E0019720F0F90131972E
:10049000F1F7FACF089594E99093BC00882389F08E
:1004A0008CE32AE030E09091BC0094FD0AC08150BA
:1004B00021F40E94540981E00895F9013197F1F780
:1004C000F2CF80E00895CF93C82F0E945A09CC0F35
:1004D000C093BB0084E88093BC008CE32AE030E04A
:1004E0009091BC0097FD09C0815019F40E945409F5
:1004F00014C0F9013197F1F7F3CF8091B900C82FFB
:10050000C87FC83151F0C03441F0C03241F0C83426
:1005100031F00E9454098C2F03C081E001C080E0BB
:10052000CF910895EF92FF920F931F93CF93DF9394
:10053000182FEB017A01209711F4C1E0D0E00E945E
:100540005A09811108C0812F880F8F5F0E947D0991
:10055000811106C009C00E945A098823A1F324C052
:10056000813011F585E020C0219787012097A9F4FB
:1005700080E00E94D509813011F486E015C08835ED
:1005800099F48091BB00F80181938F01219770F756
:1005900084E98093BC0080E007C081E00E94D50917
:1005A000813059F3803569F3DF91CF911F910F911D
:1005B000FF90EF900895CF92DF92EF92FF920F930A
:1005C0001F93CF93DF93182FD62EC72EEA01790100
:1005D000209711F4C1E0D0E00E945A09811107C0B0
:1005E000110F812F0E947D09811106C00AC00E944F
:1005F0005A098823A9F347C0813009F044C082E03A
:1006000042C0002349F08C2D0E94AA09882321F0C2
:100610008130C9F583E037C08D2D0E94AA09811170
:10062000F7CF0E945A09882321F0813061F584E0D8
:100630002AC081E0810F0E947D09882321F081304A
:1006400011F585E020C0219787012097A9F480E06B
:100650000E94D509813011F486E015C0883599F4DF
:100660008091BB00F80181938F01219770F784E995
:100670008093BC0080E007C081E00E94D5098130F2
:1006800059F3803569F3DF91CF911F910F91FF905E
:10069000EF90DF90CF900895CF92DF92EF92FF928C
:1006A0000F931F93CF93DF93C82EEB017A01D22EC5
:1006B000132F0E945A09811107C08C2D880F0E94A8
:1006C0007D09811106C009C00E945A098823A9F337
:1006D0002DC0813059F582E029C0002349F08D2FCB
:1006E0000E94AA09882321F0813001F583E01EC011
:1006F0008C2F0E94AA09882321F08130B9F484E06C
:1007000015C0CD2DD12F8E010E0D1F1DC017D10785
:1007100049F089910E94AA098823C1F3813031F4FC
:1007200085E004C084E98093BC0080E0DF91CF9134
:100730001F910F91FF90EF90DF90CF9008951F923F
:100740000F920FB60F9211248F938091C1048111E3
:100750000BC00FB6F894A8958091600088618093D3
:100760006000109260000FBE8F910F900FBE0F902F
:100770001F90189591E09093C10483FD02C098E00A
:1007800001C098E28770982B88E10FB6F894A8957D
:10079000809360000FBE90936000FFCF30917A008D
:1007A000307820917A002F7720937A00209164008E
:1007B00021602093640020916400246020936400F1
:1007C000209164002260209364008A309105C1F07A
:1007D0001092C10483FD02C028E001C028E28770A6
:1007E000822B98E10FB6F894A895909360000FBE05
:1007F00080936000809160008064809360000BC0F3
:100800000FB6F894A895809160008861809360008D
:10081000109260000FBE83B7817F83BFF89483B7C7
:10082000816083BF7894889583B78E7F83BF7894E7
:10083000332351F0809164008E7F80936400809117
:100840007A00806880937A00809164008B7F809327
:100850006400809164008D7F80936400089590917E
:100860007C009827907C80937C00992321F084E180
:1008700090E00E942D0285EC80937A0080917A00AE
:1008800086FDFCCF809178002091790090E0922B3A
:1008900008958EE40E942F04BC0180E090E00E9445
:1008A000DC0A9B01AC0160E070E08CED97E40E94F3
:1008B0003B0A0E94AD0ACB01089580E090E00895C4
:1008C000EF92FF920F931F93CF93DF93E0907C0002
:1008D00010917A00107851F4909164009E7F90936B
:1008E000640090917A00906890937A008770806499
:1008F00080937C0009E0D0E00150C9F08BE0F82E35
:100900000E94010AC82F0E94010A880F982F9C2B71
:10091000913039F0923039F0FA94F110F1CF9270B1
:1009200003C090E001C091E0DD0FD90FE5CFE09268
:100930007C0011110AC080917A008F7780937A0031
:10094000809164008160809364008D2FDF91CF914E
:100950001F910F91FF90EF900895CF92DF92EF9249
:10096000FF920F931F93CF93DF93E0907C00109141
:100970007A00107851F4809164008E7F8093640037
:1009800080917A00806880937A000AE0D0E09EE44B
:10099000D92E28ECC22E0150E9F08BE0F82ED0922F
:1009A0007C000E94010AC82FC0927C000E94010AAC
:1009B000880F982F9C2B913039F0923039F0FA94AF
:1009C000F110EDCF927003C090E001C091E0DD0F17
:1009D000D90FE1CFE0927C0011110AC080917A001A
:1009E0008F7780937A0080916400816080936400A7
:1009F0008D2FDF91CF911F910F91FF90EF90DF909E
:100A0000CF9008951F920F920FB60F9211248F93DB
:100A10009F93EF93FF938091C600909108049130CB
:100A2000C1F08A3089F08D3079F0909109049431C9
:100A300059F0E091090491E09E0F90930904F0E0D1
:100A4000E65FFB4F808305C081E08093080480E06F
:100A5000F0CFFF91EF919F918F910F900FBE0F906C
:100A60001F9018951F920F920FB60F9211248F931B
:100A7000E89881E080939A048F910F900FBE0F90B9
:100A80001F9018951F920F920FB60F9211242F935B
:100A90003F934F935F936F937F938F939F93AF9306
:100AA000BF93EF93FF93F89482E391E00197F1F7FE
:100AB00098E080E02CEC30E04B998068915029F070
:100AC000F9013197F1F78695F7CF20912F043091F6
:100AD000300422303105B1F038F42115310561F0D0
:100AE00021303105C1F1BDC023303105E9F1243099
:100AF000310509F483C0B5C08A3A09F0B2C081E07B
:100B000090E019C020912C0490912C042F709295A4
:100B10009F702917A9F090912C049095891310C00B
:100B200080912C048F7090919804891711F0811195
:100B30000DC083E090E09093300480932F0491C027
:100B400090912C049A3A39F08A3AC9F21092300402
:100B500010922F0486C022E030E0309330042093BE
:100B60002F0480932C047DC0803180F79091310454
:100B70009F3FE9F024E1299FF0011124EC5CFB4F39
:100B8000338930933104128A3FEF338B3091330431
:100B90003F3F19F49093330408C0E09132042E9F34
:100BA000F0011124EC5CFB4F938B909332049093F3
:100BB0002B0490912B049F3F09F453C0E0912B0428
:100BC00020912C0494E19E9FF0011124EC5CFB4FDA
:100BD0002083E0912B049E9FF0011124EC5CFB4FDD
:100BE00091E0980F918380932E0484E090E090939D
:100BF000300480932F0410922D0433C0E0912B0415
:100C000020912D0494E19E9FF0011124EC5CFB4F98
:100C10003181321311C020912E0482130AC0E09159
:100C20002B049E9FF0011124EC5CFB4F81E0828B32
:100C30008DCF0E9466008ACFE0912B0420912D0475
:100C400031E0320F30932D049E9FF0011124EC5CB3
:100C5000FB4FE20FF11D828390912E048927809330
:100C60002E04E19A7894FF91EF91BF91AF919F91FB
:100C70008F917F916F915F914F913F912F910F9045
:100C80000FBE0F901F901895CF93DF9380312FEEFA
:100C9000920730F08FEA91E0DF91CF910C945A00E7
:100CA00080312EE0920780F060E17EE00E94270A0A
:100CB000262FD82FC92F62E0822F0E947D008AE361
:100CC0000E9453008D2F9C2F6CE370E00E94270A36
:100CD000962FC82F62E0892F0E947D008AE30E9430
:100CE000530062E08C2FDF91CF910C947D0084EB58
:100CF00091E00E945A0060E0809198040E947D007B
:100D00008DEB91E00E945A0060E080E090E00E944C
:100D1000C1008DE00E9453008AE00E945300E091E0
:100D20000604F0910704EE0FFF1FE95FFE4F80817C
:100D300091810E945A008DE00E9453008AE00E9437
:100D40005300809127049091280440E062E00E94C3
:100D500001018FE20E9453008091250490912604A6
:100D600040E062E00E94010185EC91E00E945A009F
:100D70008DE00E9453008AE00E945300809121047C
:100D800040E061E090E00E94010180E20E94530097
:100D900080911F049091200460E00E94C1008FE2C6
:100DA0000E9453008091240440E061E090E00E94A2
:100DB000010180E20E94530080912204909123045B
:100DC00060E00E94C1008DE00E9453008AE00E9412
:100DD000530088EC91E00E945A0080912904909180
:100DE0002A0460E00E94C10080E20E9453008091CA
:100DF000290490912A048835924018F484E793E0FE
:100E000002C08CEC91E00E945A008DE00E945300D9
:100E10008AE00C9453000E947706199B03C080ED72
:100E200091E002C085ED91E00E945A0080E090E0E0
:100E30000E9444068DE00E9453008AE00E94530005
:100E40008DE00E9453008AE00C945300CF93DF930F
:100E50001F92CDB7DEB714BE0FB6F894A895809157
:100E60006000886180936000109260000FBE8091E6
:100E70007A008F7780937A008091640081608093FC
:100E8000640080B7806880BF809164008062809336
:100E900064008091640088608093640080916400A5
:100EA000806480936400549A5C98569A5E98219A64
:100EB0002998389839983A985398579A5F9A209A6F
:100EC00028985298109299042998809199048E7FBD
:100ED0008093990480919B0480939804109231042C
:100EE00081E08093470482E080935B0483E08093F9
:100EF0006F0484E0809383048FEF80939704809342
:100F00003304809332041092300410922F048091A5
:100F10006900837F886080936900E99902C0E19A43
:100F2000E99A10929A04809169008C7F8260809384
:100F30006900E89902C0E09AE89AF89410920904CE
:100F400010920804789418E11093C10086E0809311
:100F5000C2008CE08093C4001092C5008091C10053
:100F600080688093C10078948DED91E00E945A00D2
:100F70008DE00E9453008AE00E9453000E94C70146
:100F80000E94A6018DE00E9453008AE00E94530057
:100F90001982809198040E940C028DE00E945300F7
:100FA0008AE00E9453008AEA0E940C0280E20E94BA
:100FB000530085E50E940C028DE00E9453008AE0F8
:100FC0000E94530080ED97E00197F1F781E0809354
:100FD000C1048FE00FB6F894A895109360000FBE7F
:100FE000809360008EE30E945300B12C512C9AE054
:100FF000792E6624639424E1A22E30EDC32E37E0CF
:10100000D32E5C9A299A88EE93E00E942D025C9878
:10101000299888EE93E00E942D028091080488238D
:1010200009F47FC0552029F0EAE0F4E000E010E088
:101030003AC080910A0481110AC00E94A6018DE085
:101040000E9453008AE00E945300A89564C0E5E125
:10105000F1E010E04AE054E020813181DA018D9125
:10106000AD01D9019D919D018913ECC08111F6CF8D
:1010700088EE91E00E945A008DE00E9453008AE0C1
:101080000E945300812F0E945A018AE30E9453005C
:10109000B12E552453943FC090ED980F9A3038F0FC
:1010A0008D7F8C3239F581918111F6CF0BC0709E06
:1010B0009001719E300D1124890100531109080F10
:1010C000111DF1CFB8E0BB9EF0011124EB5EFE4F85
:1010D0008481958126813781F901E556FB4F2C5F8C
:1010E0003F4F32BD21BD9927009709F4BEC0039739
:1010F00008F4C3C089EF91E00E945A008DE00E947D
:1011000053008AE00E9453008B2D0E945A018EE307
:101110000E945300512CF894109209041092080474
:101120007894F894109133041F3F49F0A19EF00188
:101130001124EC5CFB4F8289811101C01FEF789470
:101140001F3F09F47AC08FEF91E00E945A008DE0B2
:101150000E9453008AE00E945300E12EF12CAE9CC5
:101160008001AF9C100D1124F801EC5CFB4F0A5C70
:101170001B4F48014180442051F0F40181914F01FF
:101180000E940C0280E20E9453004A94F4CF8DE04A
:101190000E9453008AE00E945300AE9CF001AF9C75
:1011A000F00D1124EC5CFB4FE080F12C84E0F59411
:1011B000E7948A95E1F7E114F104D9F1D8018C9113
:1011C000811137C0809199048383F09098048AEA52
:1011D0000E94DB010E94B001B0E1FB9EE00C1124F3
:1011E0008E2D0E94DB010E94B0018E2D80950E9401
:1011F000DB010E94B00181E00E94DB010E94B0018E
:10120000F80180810E94DB01D801FC900E94B001AE
:10121000F80181810E94DB01D80111968C911F2D6C
:10122000182716250E94B001812F0E94DB010E9421
:10123000B001F8940E9466007894C6010197F1F716
:10124000A895DFCE1F5F3896123109F003CF8FEEDD
:1012500091E00E945A008DE00E9453008AE00E94B3
:1012600053008EE30E94530056CF0F3F110511F03B
:1012700008F040CF0083802F0DC011830083802FA2
:101280000E94FB01811136CF81B592B5019692BDC6
:1012900081BD812F0E94FB0181112CCF8B2D0E94DB
:1012A0005A010E94C70130CFECEBF0E0108284E4D9
:1012B0008083089584EA8093BC008CE32AE030E0C8
:1012C0009091BC0097FD0AC0815021F40E945409FE
:1012D00081E00895F9013197F1F7F2CF8091B900DB
:1012E000887F883041F0803131F0883329F40E94C2
:1012F000540988E3089580E00895CF938093BB005C
:1013000084E88093BC008CE32AE030E09091BC003C
:1013100097FD0AC0815021F40E94540981E018C051
:10132000F9013197F1F7F2CFC091B900C87FC83108
:1013300071F0C03461F0C03211F0C83421F481E0A2
:101340000E944B0202C00E9454098C2F01C080E011
:10135000CF910895CF938093BB0084E88093BC0025
:101360008CE32AE030E09091BC0097FD0AC08150E8
:1013700021F40E94540981E016C0F9013197F1F778
:10138000F2CF8091B900C82FC87FC83259F0C0335E
:1013900029F481E00E944B0280E305C00E945409B9
:1013A0008C2F01C080E0CF910895882311F084EC48
:1013B00001C084E88093BC008CE32AE030E0909187
:1013C000BC0097FD0AC0815021F40E94540981E0BD
:1013D0000895F9013197F1F7F2CF8091B900887F34
:1013E000883319F40E94540988E30895EAE7F0E08D
:1013F00080818064808380917800909179008170F1
:101400000895CF93DF93DAE00E94F609C82F0E9477
:10141000F609880F8C2B813031F0823031F0D150B9
:1014200099F7817003C080E001C081E0DF91CF9126
:1014300008950E942607991B79E004C0991F96170A
:1014400008F0961B881F7A95C9F780950895AA1B06
:10145000BB1B51E107C0AA1FBB1FA617B70710F09F
:10146000A61BB70B881F991F5A95A9F780959095D1
:10147000BC01CD0108950E944F0A0C94300B0E94CC
:10148000290B58F00E94220B40F029F45F3F29F00D
:101490000C94190B51110C94640B0C941F0B0E94AB
:1014A000410B68F39923B1F3552391F3951B550B29
:1014B000BB27AA2762177307840738F09F5F5F4F27
:1014C000220F331F441FAA1FA9F335D00E2E3AF066
:1014D000E0E832D091505040E695001CCAF72BD07E
:1014E000FE2F29D0660F771F881FBB1F26173707CF
:1014F0004807AB07B0E809F0BB0B802DBF01FF2701
:1015000093585F4F3AF09E3F510578F00C94190BB9
:101510000C94640B5F3FE4F3983ED4F38695779583
:101520006795B795F7959F5FC9F7880F911D9695B9
:10153000879597F90895E1E0660F771F881FBB1F15
:10154000621773078407BA0720F0621B730B840BC2
:10155000BA0BEE1F88F7E09508950E94490B88F0BA
:101560009F5798F0B92F9927B751B0F0E1F0660F67
:10157000771F881F991F1AF0BA95C9F714C0B130A8
:1015800091F00E94630BB1E008950C94630B672FF8
:10159000782F8827B85F39F0B93FCCF386957795D7
:1015A0006795B395D9F73EF49095809570956195C0
:1015B0007F4F8F4F9F4F0895E89409C097FB3EF4EB
:1015C00090958095709561957F4F8F4F9F4F992390
:1015D000A9F0F92F96E9BB279395F695879577950E
:1015E0006795B795F111F8CFFAF4BB0F11F460FFCE
:1015F0001BC06F5F7F4F8F4F9F4F16C0882311F026
:1016000096E911C0772321F09EE8872F762F05C039
:10161000662371F096E8862F70E060E02AF09A95D4
:10162000660F771F881FDAF7880F9695879597F9C9
:10163000089597F99F6780E870E060E008959FEF54
:1016400080EC089500240A94161617061806090659
:10165000089500240A941216130614060506089528
:10166000092E0394000C11F4882352F0BB0F40F4B0
:10167000BF2B11F460FF04C06F5F7F4F8F4F9F4FF0
:10168000089557FD9058440F551F59F05F3F71F072
:101690004795880F97FB991F61F09F3F79F08795D9
:1016A0000895121613061406551FF2CF4695F1DF62
:1016B00008C0161617061806991FF1CF86957105F2
:1016C000610508940895E894BB2766277727CB0126
:1016D00097F908950F931F93CF93DF93823091056D
:1016E00010F482E090E0E091C404F091C50420E0A1
:1016F00030E0A0E0B0E0309719F1408151810281E3
:10170000138148175907C8F08417950769F4109793
:1017100031F012960C93129713961C9327C00093E6
:10172000C4041093C50422C02115310519F04217D5
:10173000530718F49A01BD01EF01DF01F801DBCF77
:1017400021153105F9F0281B390B2430310580F4BF
:101750008A819B816115710521F0FB01938382834E
:1017600004C09093C5048093C404FE01329644C023
:10177000FE01E20FF31F81939193225031093983C7
:1017800028833AC02091C2043091C304232B41F432
:1017900020910301309104013093C3042093C204CB
:1017A00020910101309102012115310541F42DB73D
:1017B0003EB74091050150910601241B350BE09185
:1017C000C204F091C304E217F307A0F42E1B3F0BF1
:1017D0002817390778F0AC014E5F5F4F24173507A3
:1017E00048F04E0F5F1F5093C3044093C20481938F
:1017F000919302C0E0E0F0E0CF01DF91CF911F9123
:101800000F910895CF93DF93009709F481C0FC01F5
:10181000329713821282A091C404B091C50410972C
:1018200081F420813181820F931F2091C204309175
:10183000C3042817390751F5F093C304E093C20499
:1018400067C0ED0120E030E0CE17DF0740F44A81A9
:101850005B819E0141155105F1F0EA01F5CFD3837B
:10186000C28340815181840F951FC817D90759F44D
:1018700088819981840F951F0296918380838A8144
:101880009B81938382832115310529F4F093C5044C
:10189000E093C4043DC0E901FB83EA834991599177
:1018A000C40FD51FEC17FD0761F480819181840F6F
:1018B000951F0296E90199838883828193819B8396
:1018C0008A83E0E0F0E012968D919C911397009747
:1018D00019F0FD01DC01F7CF8D919C9111979D01CD
:1018E0002E5F3F4F820F931F2091C2043091C3049B
:1018F0002817390769F4309729F41092C50410921B
:10190000C40402C013821282B093C304A093C20421
:0A191000DF91CF910895F894FFCF06
:10191A00010000C60420000D021202230229023827
:10192A00024302740353025602000000006D027162
:10193A000201000100830287020100030099029E4E
:10194A000201000900C902CE0201000B00F502F9EA
:10195A000202000D0009030E0302000F001E0323FA
:10196A000302001100330338030200130049034D38
:10197A00030200150067036B03020017007A037E57
:10198A00030200190097039B0302001B00B503B86A
:10199A000302001D00B503B80302001D00C603C9F7
:1019AA000302001F00D503D90302002100EE03F34E
:1019BA000302002300206261720020736563003E07
:1019CA00313768002070756D70206E3A002073748C
:1019DA007274733A00207600206C3A0064617900D0
:1019EA00206F6E20002064656C6179200070756D2F
:1019FA00705F646174613A00666F756E6420006E90
:101A0A006F7420666F756E64004552524F520072B1
:101A1A0065616420627920727334383500696E69B1
:101A2A00740070726573732073656E7320657272C9
:101A3A006F7200656D7074790073746172742066D8
:101A4A00726F6D206C6F77007072657373206869AE
:101A5A0067680073746172742066726F6D206E6FAE
:101A6A00726D0061640070756D70206164647265E6
:101A7A00737320666F722072733438350070316F59
:101A8A000070726573733120616463206F666673D8
:101A9A0065740070326F007072657373322061640E
:101AAA0063206F66667365740065706469006572A9
:101ABA00726F6E656F757320707265737375726578
:101ACA00206469666620666F722032206D656173D4
:101ADA007572656D656E74730065706D78006572F8
:101AEA00726F6E656F757320707265737375726548
:101AFA002070756D702063616E206E6F742065783A
:101B0A006365656400656F7400656D70747920267D
:101B1A00206F6E2074696D650065646D6E00656D79
:101B2A007074792064656C6179206D696E006564F2
:101B3A006D7800656D7074792064656C6179206DCB
:101B4A006178006564737400656D707479206465EA
:101B5A006C61792073746570006461680064656CF7
:101B6A00617920616674657220686967682070729D
:101B7A0065737375726500646E690064656C61797A
:101B8A00206174206E6967687400646C7000646513
:101B9A006C6179206C6F77207072657373757265EA
:101BAA0020636865636B006468700064656C6179C2
:101BBA00206869676820707265737375726520633F
:101BCA006865636B00646D0064656C6179206D659E
:101BDA0061737572650064730064656C6179207362
:101BEA0074617274006470650064656C6179207058
:101BFA0072657373757265206572726F7200746DA7
:101C0A00706F0074696D65206D61782070756D70F4
:041C1A00206F6E00C9
:00000001FF
